{
	"cofre.sol": {
		"Cofre": {
			"abi": [
				{
					"anonymous": false,
					"inputs": [
						{
							"indexed": true,
							"internalType": "address",
							"name": "de",
							"type": "address"
						},
						{
							"indexed": false,
							"internalType": "uint256",
							"name": "valor",
							"type": "uint256"
						}
					],
					"name": "Deposito",
					"type": "event"
				},
				{
					"anonymous": false,
					"inputs": [
						{
							"indexed": true,
							"internalType": "address",
							"name": "para",
							"type": "address"
						},
						{
							"indexed": false,
							"internalType": "uint256",
							"name": "valor",
							"type": "uint256"
						}
					],
					"name": "Saque",
					"type": "event"
				},
				{
					"inputs": [
						{
							"internalType": "address",
							"name": "usuario",
							"type": "address"
						}
					],
					"name": "consultarSaldo",
					"outputs": [
						{
							"internalType": "uint256",
							"name": "",
							"type": "uint256"
						}
					],
					"stateMutability": "view",
					"type": "function"
				},
				{
					"inputs": [
						{
							"internalType": "address",
							"name": "",
							"type": "address"
						}
					],
					"name": "creditos",
					"outputs": [
						{
							"internalType": "uint256",
							"name": "",
							"type": "uint256"
						}
					],
					"stateMutability": "view",
					"type": "function"
				},
				{
					"inputs": [],
					"name": "depositar",
					"outputs": [],
					"stateMutability": "payable",
					"type": "function"
				},
				{
					"inputs": [
						{
							"internalType": "uint256",
							"name": "valor",
							"type": "uint256"
						}
					],
					"name": "sacar",
					"outputs": [],
					"stateMutability": "nonpayable",
					"type": "function"
				}
			],
			"devdoc": {
				"kind": "dev",
				"methods": {},
				"version": 1
			},
			"evm": {
				"assembly": "    /* \"cofre.sol\":94:948  contract Cofre is ICofre {... */\n  mstore(0x40, 0x80)\n  callvalue\n  dup1\n  iszero\n  tag_1\n  jumpi\n  revert(0x00, 0x00)\ntag_1:\n  pop\n  dataSize(sub_0)\n  dup1\n  dataOffset(sub_0)\n  0x00\n  codecopy\n  0x00\n  return\nstop\n\nsub_0: assembly {\n        /* \"cofre.sol\":94:948  contract Cofre is ICofre {... */\n      mstore(0x40, 0x80)\n      jumpi(tag_1, lt(calldatasize, 0x04))\n      shr(0xe0, calldataload(0x00))\n      dup1\n      0x0dac66bd\n      eq\n      tag_2\n      jumpi\n      dup1\n      0x218895e3\n      eq\n      tag_3\n      jumpi\n      dup1\n      0x3d922f90\n      eq\n      tag_4\n      jumpi\n      dup1\n      0x7371b0d6\n      eq\n      tag_5\n      jumpi\n    tag_1:\n      revert(0x00, 0x00)\n        /* \"cofre.sol\":128:172  mapping (address => uint256) public creditos */\n    tag_2:\n      callvalue\n      dup1\n      iszero\n      tag_6\n      jumpi\n      revert(0x00, 0x00)\n    tag_6:\n      pop\n      tag_7\n      0x04\n      dup1\n      calldatasize\n      sub\n      dup2\n      add\n      swap1\n      tag_8\n      swap2\n      swap1\n      tag_9\n      jump\t// in\n    tag_8:\n      tag_10\n      jump\t// in\n    tag_7:\n      mload(0x40)\n      tag_11\n      swap2\n      swap1\n      tag_12\n      jump\t// in\n    tag_11:\n      mload(0x40)\n      dup1\n      swap2\n      sub\n      swap1\n      return\n        /* \"cofre.sol\":497:613  function consultarSaldo(address usuario) external view returns (uint256) {... */\n    tag_3:\n      callvalue\n      dup1\n      iszero\n      tag_13\n      jumpi\n      revert(0x00, 0x00)\n    tag_13:\n      pop\n      tag_14\n      0x04\n      dup1\n      calldatasize\n      sub\n      dup2\n      add\n      swap1\n      tag_15\n      swap2\n      swap1\n      tag_9\n      jump\t// in\n    tag_15:\n      tag_16\n      jump\t// in\n    tag_14:\n      mload(0x40)\n      tag_17\n      swap2\n      swap1\n      tag_12\n      jump\t// in\n    tag_17:\n      mload(0x40)\n      dup1\n      swap2\n      sub\n      swap1\n      return\n        /* \"cofre.sol\":294:485  function depositar() external payable {... */\n    tag_4:\n      tag_18\n      tag_19\n      jump\t// in\n    tag_18:\n      stop\n        /* \"cofre.sol\":621:945  function sacar(uint256 valor) external {... */\n    tag_5:\n      callvalue\n      dup1\n      iszero\n      tag_20\n      jumpi\n      revert(0x00, 0x00)\n    tag_20:\n      pop\n      tag_21\n      0x04\n      dup1\n      calldatasize\n      sub\n      dup2\n      add\n      swap1\n      tag_22\n      swap2\n      swap1\n      tag_23\n      jump\t// in\n    tag_22:\n      tag_24\n      jump\t// in\n    tag_21:\n      stop\n        /* \"cofre.sol\":128:172  mapping (address => uint256) public creditos */\n    tag_10:\n      mstore(0x20, 0x00)\n      dup1\n      0x00\n      mstore\n      keccak256(0x00, 0x40)\n      0x00\n      swap2\n      pop\n      swap1\n      pop\n      sload\n      dup2\n      jump\t// out\n        /* \"cofre.sol\":497:613  function consultarSaldo(address usuario) external view returns (uint256) {... */\n    tag_16:\n        /* \"cofre.sol\":561:568  uint256 */\n      0x00\n        /* \"cofre.sol\":588:596  creditos */\n      0x00\n        /* \"cofre.sol\":588:605  creditos[usuario] */\n      0x00\n        /* \"cofre.sol\":597:604  usuario */\n      dup4\n        /* \"cofre.sol\":588:605  creditos[usuario] */\n      0xffffffffffffffffffffffffffffffffffffffff\n      and\n      0xffffffffffffffffffffffffffffffffffffffff\n      and\n      dup2\n      mstore\n      0x20\n      add\n      swap1\n      dup2\n      mstore\n      0x20\n      add\n      0x00\n      keccak256\n      sload\n        /* \"cofre.sol\":581:605  return creditos[usuario] */\n      swap1\n      pop\n        /* \"cofre.sol\":497:613  function consultarSaldo(address usuario) external view returns (uint256) {... */\n      swap2\n      swap1\n      pop\n      jump\t// out\n        /* \"cofre.sol\":294:485  function depositar() external payable {... */\n    tag_19:\n        /* \"cofre.sol\":363:364  0 */\n      0x00\n        /* \"cofre.sol\":351:360  msg.value */\n      callvalue\n        /* \"cofre.sol\":351:364  msg.value > 0 */\n      gt\n        /* \"cofre.sol\":343:386  require(msg.value > 0, \"envie algum ether\") */\n      tag_27\n      jumpi\n      mload(0x40)\n      0x08c379a000000000000000000000000000000000000000000000000000000000\n      dup2\n      mstore\n      0x04\n      add\n      tag_28\n      swap1\n      tag_29\n      jump\t// in\n    tag_28:\n      mload(0x40)\n      dup1\n      swap2\n      sub\n      swap1\n      revert\n    tag_27:\n        /* \"cofre.sol\":421:430  msg.value */\n      callvalue\n        /* \"cofre.sol\":397:405  creditos */\n      0x00\n        /* \"cofre.sol\":397:417  creditos[msg.sender] */\n      0x00\n        /* \"cofre.sol\":406:416  msg.sender */\n      caller\n        /* \"cofre.sol\":397:417  creditos[msg.sender] */\n      0xffffffffffffffffffffffffffffffffffffffff\n      and\n      0xffffffffffffffffffffffffffffffffffffffff\n      and\n      dup2\n      mstore\n      0x20\n      add\n      swap1\n      dup2\n      mstore\n      0x20\n      add\n      0x00\n      keccak256\n      0x00\n        /* \"cofre.sol\":397:430  creditos[msg.sender] += msg.value */\n      dup3\n      dup3\n      sload\n      tag_30\n      swap2\n      swap1\n      tag_31\n      jump\t// in\n    tag_30:\n      swap3\n      pop\n      pop\n      dup2\n      swap1\n      sstore\n      pop\n        /* \"cofre.sol\":455:465  msg.sender */\n      caller\n        /* \"cofre.sol\":446:477  Deposito(msg.sender, msg.value) */\n      0xffffffffffffffffffffffffffffffffffffffff\n      and\n      0x453529dac6ef979a41d67fbeeabdfae29903c185f64d77aa690df9eca5f1aa60\n        /* \"cofre.sol\":467:476  msg.value */\n      callvalue\n        /* \"cofre.sol\":446:477  Deposito(msg.sender, msg.value) */\n      mload(0x40)\n      tag_32\n      swap2\n      swap1\n      tag_12\n      jump\t// in\n    tag_32:\n      mload(0x40)\n      dup1\n      swap2\n      sub\n      swap1\n      log2\n        /* \"cofre.sol\":294:485  function depositar() external payable {... */\n      jump\t// out\n        /* \"cofre.sol\":621:945  function sacar(uint256 valor) external {... */\n    tag_24:\n        /* \"cofre.sol\":703:708  valor */\n      dup1\n        /* \"cofre.sol\":679:687  creditos */\n      0x00\n        /* \"cofre.sol\":679:699  creditos[msg.sender] */\n      0x00\n        /* \"cofre.sol\":688:698  msg.sender */\n      caller\n        /* \"cofre.sol\":679:699  creditos[msg.sender] */\n      0xffffffffffffffffffffffffffffffffffffffff\n      and\n      0xffffffffffffffffffffffffffffffffffffffff\n      and\n      dup2\n      mstore\n      0x20\n      add\n      swap1\n      dup2\n      mstore\n      0x20\n      add\n      0x00\n      keccak256\n      sload\n        /* \"cofre.sol\":679:708  creditos[msg.sender] >= valor */\n      lt\n      iszero\n        /* \"cofre.sol\":671:731  require(creditos[msg.sender] >= valor, \"saldo insuficiente\") */\n      tag_34\n      jumpi\n      mload(0x40)\n      0x08c379a000000000000000000000000000000000000000000000000000000000\n      dup2\n      mstore\n      0x04\n      add\n      tag_35\n      swap1\n      tag_36\n      jump\t// in\n    tag_35:\n      mload(0x40)\n      dup1\n      swap2\n      sub\n      swap1\n      revert\n    tag_34:\n        /* \"cofre.sol\":766:771  valor */\n      dup1\n        /* \"cofre.sol\":742:750  creditos */\n      0x00\n        /* \"cofre.sol\":742:762  creditos[msg.sender] */\n      0x00\n        /* \"cofre.sol\":751:761  msg.sender */\n      caller\n        /* \"cofre.sol\":742:762  creditos[msg.sender] */\n      0xffffffffffffffffffffffffffffffffffffffff\n      and\n      0xffffffffffffffffffffffffffffffffffffffff\n      and\n      dup2\n      mstore\n      0x20\n      add\n      swap1\n      dup2\n      mstore\n      0x20\n      add\n      0x00\n      keccak256\n      0x00\n        /* \"cofre.sol\":742:771  creditos[msg.sender] -= valor */\n      dup3\n      dup3\n      sload\n      tag_37\n      swap2\n      swap1\n      tag_38\n      jump\t// in\n    tag_37:\n      swap3\n      pop\n      pop\n      dup2\n      swap1\n      sstore\n      pop\n        /* \"cofre.sol\":783:795  bool success */\n      0x00\n        /* \"cofre.sol\":809:819  msg.sender */\n      caller\n        /* \"cofre.sol\":801:825  payable(msg.sender).call */\n      0xffffffffffffffffffffffffffffffffffffffff\n      and\n        /* \"cofre.sol\":833:838  valor */\n      dup3\n        /* \"cofre.sol\":801:843  payable(msg.sender).call{value: valor}(\"\") */\n      mload(0x40)\n      tag_39\n      swap1\n      tag_40\n      jump\t// in\n    tag_39:\n      0x00\n      mload(0x40)\n      dup1\n      dup4\n      sub\n      dup2\n      dup6\n      dup8\n      gas\n      call\n      swap3\n      pop\n      pop\n      pop\n      returndatasize\n      dup1\n      0x00\n      dup2\n      eq\n      tag_43\n      jumpi\n      mload(0x40)\n      swap2\n      pop\n      and(add(returndatasize, 0x3f), not(0x1f))\n      dup3\n      add\n      0x40\n      mstore\n      returndatasize\n      dup3\n      mstore\n      returndatasize\n      0x00\n      0x20\n      dup5\n      add\n      returndatacopy\n      jump(tag_42)\n    tag_43:\n      0x60\n      swap2\n      pop\n    tag_42:\n      pop\n        /* \"cofre.sol\":782:843  (bool success, ) = payable(msg.sender).call{value: valor}(\"\") */\n      pop\n      swap1\n      pop\n        /* \"cofre.sol\":862:869  success */\n      dup1\n        /* \"cofre.sol\":854:897  require(success, \"Transferencia falhou...\") */\n      tag_44\n      jumpi\n      mload(0x40)\n      0x08c379a000000000000000000000000000000000000000000000000000000000\n      dup2\n      mstore\n      0x04\n      add\n      tag_45\n      swap1\n      tag_46\n      jump\t// in\n    tag_45:\n      mload(0x40)\n      dup1\n      swap2\n      sub\n      swap1\n      revert\n    tag_44:\n        /* \"cofre.sol\":919:929  msg.sender */\n      caller\n        /* \"cofre.sol\":913:937  Saque(msg.sender, valor) */\n      0xffffffffffffffffffffffffffffffffffffffff\n      and\n      0x014a0fee2e4f4636f4de7bc3c3662262d3d28152c5700f9ad350ef2e02a9b278\n        /* \"cofre.sol\":931:936  valor */\n      dup4\n        /* \"cofre.sol\":913:937  Saque(msg.sender, valor) */\n      mload(0x40)\n      tag_47\n      swap2\n      swap1\n      tag_12\n      jump\t// in\n    tag_47:\n      mload(0x40)\n      dup1\n      swap2\n      sub\n      swap1\n      log2\n        /* \"cofre.sol\":660:945  {... */\n      pop\n        /* \"cofre.sol\":621:945  function sacar(uint256 valor) external {... */\n      pop\n      jump\t// out\n        /* \"#utility.yul\":88:205   */\n    tag_49:\n        /* \"#utility.yul\":197:198   */\n      0x00\n        /* \"#utility.yul\":194:195   */\n      0x00\n        /* \"#utility.yul\":187:199   */\n      revert\n        /* \"#utility.yul\":334:460   */\n    tag_51:\n        /* \"#utility.yul\":371:378   */\n      0x00\n        /* \"#utility.yul\":411:453   */\n      0xffffffffffffffffffffffffffffffffffffffff\n        /* \"#utility.yul\":404:409   */\n      dup3\n        /* \"#utility.yul\":400:454   */\n      and\n        /* \"#utility.yul\":389:454   */\n      swap1\n      pop\n        /* \"#utility.yul\":334:460   */\n      swap2\n      swap1\n      pop\n      jump\t// out\n        /* \"#utility.yul\":466:562   */\n    tag_52:\n        /* \"#utility.yul\":503:510   */\n      0x00\n        /* \"#utility.yul\":532:556   */\n      tag_76\n        /* \"#utility.yul\":550:555   */\n      dup3\n        /* \"#utility.yul\":532:556   */\n      tag_51\n      jump\t// in\n    tag_76:\n        /* \"#utility.yul\":521:556   */\n      swap1\n      pop\n        /* \"#utility.yul\":466:562   */\n      swap2\n      swap1\n      pop\n      jump\t// out\n        /* \"#utility.yul\":568:690   */\n    tag_53:\n        /* \"#utility.yul\":641:665   */\n      tag_78\n        /* \"#utility.yul\":659:664   */\n      dup2\n        /* \"#utility.yul\":641:665   */\n      tag_52\n      jump\t// in\n    tag_78:\n        /* \"#utility.yul\":634:639   */\n      dup2\n        /* \"#utility.yul\":631:666   */\n      eq\n        /* \"#utility.yul\":621:684   */\n      tag_79\n      jumpi\n        /* \"#utility.yul\":680:681   */\n      0x00\n        /* \"#utility.yul\":677:678   */\n      0x00\n        /* \"#utility.yul\":670:682   */\n      revert\n        /* \"#utility.yul\":621:684   */\n    tag_79:\n        /* \"#utility.yul\":568:690   */\n      pop\n      jump\t// out\n        /* \"#utility.yul\":696:835   */\n    tag_54:\n        /* \"#utility.yul\":742:747   */\n      0x00\n        /* \"#utility.yul\":780:786   */\n      dup2\n        /* \"#utility.yul\":767:787   */\n      calldataload\n        /* \"#utility.yul\":758:787   */\n      swap1\n      pop\n        /* \"#utility.yul\":796:829   */\n      tag_81\n        /* \"#utility.yul\":823:828   */\n      dup2\n        /* \"#utility.yul\":796:829   */\n      tag_53\n      jump\t// in\n    tag_81:\n        /* \"#utility.yul\":696:835   */\n      swap3\n      swap2\n      pop\n      pop\n      jump\t// out\n        /* \"#utility.yul\":841:1170   */\n    tag_9:\n        /* \"#utility.yul\":900:906   */\n      0x00\n        /* \"#utility.yul\":949:951   */\n      0x20\n        /* \"#utility.yul\":937:946   */\n      dup3\n        /* \"#utility.yul\":928:935   */\n      dup5\n        /* \"#utility.yul\":924:947   */\n      sub\n        /* \"#utility.yul\":920:952   */\n      slt\n        /* \"#utility.yul\":917:1036   */\n      iszero\n      tag_83\n      jumpi\n        /* \"#utility.yul\":955:1034   */\n      tag_84\n      tag_49\n      jump\t// in\n    tag_84:\n        /* \"#utility.yul\":917:1036   */\n    tag_83:\n        /* \"#utility.yul\":1075:1076   */\n      0x00\n        /* \"#utility.yul\":1100:1153   */\n      tag_85\n        /* \"#utility.yul\":1145:1152   */\n      dup5\n        /* \"#utility.yul\":1136:1142   */\n      dup3\n        /* \"#utility.yul\":1125:1134   */\n      dup6\n        /* \"#utility.yul\":1121:1143   */\n      add\n        /* \"#utility.yul\":1100:1153   */\n      tag_54\n      jump\t// in\n    tag_85:\n        /* \"#utility.yul\":1090:1153   */\n      swap2\n      pop\n        /* \"#utility.yul\":1046:1163   */\n      pop\n        /* \"#utility.yul\":841:1170   */\n      swap3\n      swap2\n      pop\n      pop\n      jump\t// out\n        /* \"#utility.yul\":1176:1253   */\n    tag_55:\n        /* \"#utility.yul\":1213:1220   */\n      0x00\n        /* \"#utility.yul\":1242:1247   */\n      dup2\n        /* \"#utility.yul\":1231:1247   */\n      swap1\n      pop\n        /* \"#utility.yul\":1176:1253   */\n      swap2\n      swap1\n      pop\n      jump\t// out\n        /* \"#utility.yul\":1259:1377   */\n    tag_56:\n        /* \"#utility.yul\":1346:1370   */\n      tag_88\n        /* \"#utility.yul\":1364:1369   */\n      dup2\n        /* \"#utility.yul\":1346:1370   */\n      tag_55\n      jump\t// in\n    tag_88:\n        /* \"#utility.yul\":1341:1344   */\n      dup3\n        /* \"#utility.yul\":1334:1371   */\n      mstore\n        /* \"#utility.yul\":1259:1377   */\n      pop\n      pop\n      jump\t// out\n        /* \"#utility.yul\":1383:1605   */\n    tag_12:\n        /* \"#utility.yul\":1476:1480   */\n      0x00\n        /* \"#utility.yul\":1514:1516   */\n      0x20\n        /* \"#utility.yul\":1503:1512   */\n      dup3\n        /* \"#utility.yul\":1499:1517   */\n      add\n        /* \"#utility.yul\":1491:1517   */\n      swap1\n      pop\n        /* \"#utility.yul\":1527:1598   */\n      tag_90\n        /* \"#utility.yul\":1595:1596   */\n      0x00\n        /* \"#utility.yul\":1584:1593   */\n      dup4\n        /* \"#utility.yul\":1580:1597   */\n      add\n        /* \"#utility.yul\":1571:1577   */\n      dup5\n        /* \"#utility.yul\":1527:1598   */\n      tag_56\n      jump\t// in\n    tag_90:\n        /* \"#utility.yul\":1383:1605   */\n      swap3\n      swap2\n      pop\n      pop\n      jump\t// out\n        /* \"#utility.yul\":1611:1733   */\n    tag_57:\n        /* \"#utility.yul\":1684:1708   */\n      tag_92\n        /* \"#utility.yul\":1702:1707   */\n      dup2\n        /* \"#utility.yul\":1684:1708   */\n      tag_55\n      jump\t// in\n    tag_92:\n        /* \"#utility.yul\":1677:1682   */\n      dup2\n        /* \"#utility.yul\":1674:1709   */\n      eq\n        /* \"#utility.yul\":1664:1727   */\n      tag_93\n      jumpi\n        /* \"#utility.yul\":1723:1724   */\n      0x00\n        /* \"#utility.yul\":1720:1721   */\n      0x00\n        /* \"#utility.yul\":1713:1725   */\n      revert\n        /* \"#utility.yul\":1664:1727   */\n    tag_93:\n        /* \"#utility.yul\":1611:1733   */\n      pop\n      jump\t// out\n        /* \"#utility.yul\":1739:1878   */\n    tag_58:\n        /* \"#utility.yul\":1785:1790   */\n      0x00\n        /* \"#utility.yul\":1823:1829   */\n      dup2\n        /* \"#utility.yul\":1810:1830   */\n      calldataload\n        /* \"#utility.yul\":1801:1830   */\n      swap1\n      pop\n        /* \"#utility.yul\":1839:1872   */\n      tag_95\n        /* \"#utility.yul\":1866:1871   */\n      dup2\n        /* \"#utility.yul\":1839:1872   */\n      tag_57\n      jump\t// in\n    tag_95:\n        /* \"#utility.yul\":1739:1878   */\n      swap3\n      swap2\n      pop\n      pop\n      jump\t// out\n        /* \"#utility.yul\":1884:2213   */\n    tag_23:\n        /* \"#utility.yul\":1943:1949   */\n      0x00\n        /* \"#utility.yul\":1992:1994   */\n      0x20\n        /* \"#utility.yul\":1980:1989   */\n      dup3\n        /* \"#utility.yul\":1971:1978   */\n      dup5\n        /* \"#utility.yul\":1967:1990   */\n      sub\n        /* \"#utility.yul\":1963:1995   */\n      slt\n        /* \"#utility.yul\":1960:2079   */\n      iszero\n      tag_97\n      jumpi\n        /* \"#utility.yul\":1998:2077   */\n      tag_98\n      tag_49\n      jump\t// in\n    tag_98:\n        /* \"#utility.yul\":1960:2079   */\n    tag_97:\n        /* \"#utility.yul\":2118:2119   */\n      0x00\n        /* \"#utility.yul\":2143:2196   */\n      tag_99\n        /* \"#utility.yul\":2188:2195   */\n      dup5\n        /* \"#utility.yul\":2179:2185   */\n      dup3\n        /* \"#utility.yul\":2168:2177   */\n      dup6\n        /* \"#utility.yul\":2164:2186   */\n      add\n        /* \"#utility.yul\":2143:2196   */\n      tag_58\n      jump\t// in\n    tag_99:\n        /* \"#utility.yul\":2133:2196   */\n      swap2\n      pop\n        /* \"#utility.yul\":2089:2206   */\n      pop\n        /* \"#utility.yul\":1884:2213   */\n      swap3\n      swap2\n      pop\n      pop\n      jump\t// out\n        /* \"#utility.yul\":2219:2388   */\n    tag_59:\n        /* \"#utility.yul\":2303:2314   */\n      0x00\n        /* \"#utility.yul\":2337:2343   */\n      dup3\n        /* \"#utility.yul\":2332:2335   */\n      dup3\n        /* \"#utility.yul\":2325:2344   */\n      mstore\n        /* \"#utility.yul\":2377:2381   */\n      0x20\n        /* \"#utility.yul\":2372:2375   */\n      dup3\n        /* \"#utility.yul\":2368:2382   */\n      add\n        /* \"#utility.yul\":2353:2382   */\n      swap1\n      pop\n        /* \"#utility.yul\":2219:2388   */\n      swap3\n      swap2\n      pop\n      pop\n      jump\t// out\n        /* \"#utility.yul\":2394:2561   */\n    tag_60:\n        /* \"#utility.yul\":2534:2553   */\n      0x656e76696520616c67756d206574686572000000000000000000000000000000\n        /* \"#utility.yul\":2530:2531   */\n      0x00\n        /* \"#utility.yul\":2522:2528   */\n      dup3\n        /* \"#utility.yul\":2518:2532   */\n      add\n        /* \"#utility.yul\":2511:2554   */\n      mstore\n        /* \"#utility.yul\":2394:2561   */\n      pop\n      jump\t// out\n        /* \"#utility.yul\":2567:2933   */\n    tag_61:\n        /* \"#utility.yul\":2709:2712   */\n      0x00\n        /* \"#utility.yul\":2730:2797   */\n      tag_103\n        /* \"#utility.yul\":2794:2796   */\n      0x11\n        /* \"#utility.yul\":2789:2792   */\n      dup4\n        /* \"#utility.yul\":2730:2797   */\n      tag_59\n      jump\t// in\n    tag_103:\n        /* \"#utility.yul\":2723:2797   */\n      swap2\n      pop\n        /* \"#utility.yul\":2806:2899   */\n      tag_104\n        /* \"#utility.yul\":2895:2898   */\n      dup3\n        /* \"#utility.yul\":2806:2899   */\n      tag_60\n      jump\t// in\n    tag_104:\n        /* \"#utility.yul\":2924:2926   */\n      0x20\n        /* \"#utility.yul\":2919:2922   */\n      dup3\n        /* \"#utility.yul\":2915:2927   */\n      add\n        /* \"#utility.yul\":2908:2927   */\n      swap1\n      pop\n        /* \"#utility.yul\":2567:2933   */\n      swap2\n      swap1\n      pop\n      jump\t// out\n        /* \"#utility.yul\":2939:3358   */\n    tag_29:\n        /* \"#utility.yul\":3105:3109   */\n      0x00\n        /* \"#utility.yul\":3143:3145   */\n      0x20\n        /* \"#utility.yul\":3132:3141   */\n      dup3\n        /* \"#utility.yul\":3128:3146   */\n      add\n        /* \"#utility.yul\":3120:3146   */\n      swap1\n      pop\n        /* \"#utility.yul\":3192:3201   */\n      dup2\n        /* \"#utility.yul\":3186:3190   */\n      dup2\n        /* \"#utility.yul\":3182:3202   */\n      sub\n        /* \"#utility.yul\":3178:3179   */\n      0x00\n        /* \"#utility.yul\":3167:3176   */\n      dup4\n        /* \"#utility.yul\":3163:3180   */\n      add\n        /* \"#utility.yul\":3156:3203   */\n      mstore\n        /* \"#utility.yul\":3220:3351   */\n      tag_106\n        /* \"#utility.yul\":3346:3350   */\n      dup2\n        /* \"#utility.yul\":3220:3351   */\n      tag_61\n      jump\t// in\n    tag_106:\n        /* \"#utility.yul\":3212:3351   */\n      swap1\n      pop\n        /* \"#utility.yul\":2939:3358   */\n      swap2\n      swap1\n      pop\n      jump\t// out\n        /* \"#utility.yul\":3364:3544   */\n    tag_62:\n        /* \"#utility.yul\":3412:3489   */\n      0x4e487b7100000000000000000000000000000000000000000000000000000000\n        /* \"#utility.yul\":3409:3410   */\n      0x00\n        /* \"#utility.yul\":3402:3490   */\n      mstore\n        /* \"#utility.yul\":3509:3513   */\n      0x11\n        /* \"#utility.yul\":3506:3507   */\n      0x04\n        /* \"#utility.yul\":3499:3514   */\n      mstore\n        /* \"#utility.yul\":3533:3537   */\n      0x24\n        /* \"#utility.yul\":3530:3531   */\n      0x00\n        /* \"#utility.yul\":3523:3538   */\n      revert\n        /* \"#utility.yul\":3550:3741   */\n    tag_31:\n        /* \"#utility.yul\":3590:3593   */\n      0x00\n        /* \"#utility.yul\":3609:3629   */\n      tag_109\n        /* \"#utility.yul\":3627:3628   */\n      dup3\n        /* \"#utility.yul\":3609:3629   */\n      tag_55\n      jump\t// in\n    tag_109:\n        /* \"#utility.yul\":3604:3629   */\n      swap2\n      pop\n        /* \"#utility.yul\":3643:3663   */\n      tag_110\n        /* \"#utility.yul\":3661:3662   */\n      dup4\n        /* \"#utility.yul\":3643:3663   */\n      tag_55\n      jump\t// in\n    tag_110:\n        /* \"#utility.yul\":3638:3663   */\n      swap3\n      pop\n        /* \"#utility.yul\":3686:3687   */\n      dup3\n        /* \"#utility.yul\":3683:3684   */\n      dup3\n        /* \"#utility.yul\":3679:3688   */\n      add\n        /* \"#utility.yul\":3672:3688   */\n      swap1\n      pop\n        /* \"#utility.yul\":3707:3710   */\n      dup1\n        /* \"#utility.yul\":3704:3705   */\n      dup3\n        /* \"#utility.yul\":3701:3711   */\n      gt\n        /* \"#utility.yul\":3698:3734   */\n      iszero\n      tag_111\n      jumpi\n        /* \"#utility.yul\":3714:3732   */\n      tag_112\n      tag_62\n      jump\t// in\n    tag_112:\n        /* \"#utility.yul\":3698:3734   */\n    tag_111:\n        /* \"#utility.yul\":3550:3741   */\n      swap3\n      swap2\n      pop\n      pop\n      jump\t// out\n        /* \"#utility.yul\":3747:3915   */\n    tag_63:\n        /* \"#utility.yul\":3887:3907   */\n      0x73616c646f20696e737566696369656e74650000000000000000000000000000\n        /* \"#utility.yul\":3883:3884   */\n      0x00\n        /* \"#utility.yul\":3875:3881   */\n      dup3\n        /* \"#utility.yul\":3871:3885   */\n      add\n        /* \"#utility.yul\":3864:3908   */\n      mstore\n        /* \"#utility.yul\":3747:3915   */\n      pop\n      jump\t// out\n        /* \"#utility.yul\":3921:4287   */\n    tag_64:\n        /* \"#utility.yul\":4063:4066   */\n      0x00\n        /* \"#utility.yul\":4084:4151   */\n      tag_115\n        /* \"#utility.yul\":4148:4150   */\n      0x12\n        /* \"#utility.yul\":4143:4146   */\n      dup4\n        /* \"#utility.yul\":4084:4151   */\n      tag_59\n      jump\t// in\n    tag_115:\n        /* \"#utility.yul\":4077:4151   */\n      swap2\n      pop\n        /* \"#utility.yul\":4160:4253   */\n      tag_116\n        /* \"#utility.yul\":4249:4252   */\n      dup3\n        /* \"#utility.yul\":4160:4253   */\n      tag_63\n      jump\t// in\n    tag_116:\n        /* \"#utility.yul\":4278:4280   */\n      0x20\n        /* \"#utility.yul\":4273:4276   */\n      dup3\n        /* \"#utility.yul\":4269:4281   */\n      add\n        /* \"#utility.yul\":4262:4281   */\n      swap1\n      pop\n        /* \"#utility.yul\":3921:4287   */\n      swap2\n      swap1\n      pop\n      jump\t// out\n        /* \"#utility.yul\":4293:4712   */\n    tag_36:\n        /* \"#utility.yul\":4459:4463   */\n      0x00\n        /* \"#utility.yul\":4497:4499   */\n      0x20\n        /* \"#utility.yul\":4486:4495   */\n      dup3\n        /* \"#utility.yul\":4482:4500   */\n      add\n        /* \"#utility.yul\":4474:4500   */\n      swap1\n      pop\n        /* \"#utility.yul\":4546:4555   */\n      dup2\n        /* \"#utility.yul\":4540:4544   */\n      dup2\n        /* \"#utility.yul\":4536:4556   */\n      sub\n        /* \"#utility.yul\":4532:4533   */\n      0x00\n        /* \"#utility.yul\":4521:4530   */\n      dup4\n        /* \"#utility.yul\":4517:4534   */\n      add\n        /* \"#utility.yul\":4510:4557   */\n      mstore\n        /* \"#utility.yul\":4574:4705   */\n      tag_118\n        /* \"#utility.yul\":4700:4704   */\n      dup2\n        /* \"#utility.yul\":4574:4705   */\n      tag_64\n      jump\t// in\n    tag_118:\n        /* \"#utility.yul\":4566:4705   */\n      swap1\n      pop\n        /* \"#utility.yul\":4293:4712   */\n      swap2\n      swap1\n      pop\n      jump\t// out\n        /* \"#utility.yul\":4718:4912   */\n    tag_38:\n        /* \"#utility.yul\":4758:4762   */\n      0x00\n        /* \"#utility.yul\":4778:4798   */\n      tag_120\n        /* \"#utility.yul\":4796:4797   */\n      dup3\n        /* \"#utility.yul\":4778:4798   */\n      tag_55\n      jump\t// in\n    tag_120:\n        /* \"#utility.yul\":4773:4798   */\n      swap2\n      pop\n        /* \"#utility.yul\":4812:4832   */\n      tag_121\n        /* \"#utility.yul\":4830:4831   */\n      dup4\n        /* \"#utility.yul\":4812:4832   */\n      tag_55\n      jump\t// in\n    tag_121:\n        /* \"#utility.yul\":4807:4832   */\n      swap3\n      pop\n        /* \"#utility.yul\":4856:4857   */\n      dup3\n        /* \"#utility.yul\":4853:4854   */\n      dup3\n        /* \"#utility.yul\":4849:4858   */\n      sub\n        /* \"#utility.yul\":4841:4858   */\n      swap1\n      pop\n        /* \"#utility.yul\":4880:4881   */\n      dup2\n        /* \"#utility.yul\":4874:4878   */\n      dup2\n        /* \"#utility.yul\":4871:4882   */\n      gt\n        /* \"#utility.yul\":4868:4905   */\n      iszero\n      tag_122\n      jumpi\n        /* \"#utility.yul\":4885:4903   */\n      tag_123\n      tag_62\n      jump\t// in\n    tag_123:\n        /* \"#utility.yul\":4868:4905   */\n    tag_122:\n        /* \"#utility.yul\":4718:4912   */\n      swap3\n      swap2\n      pop\n      pop\n      jump\t// out\n        /* \"#utility.yul\":4918:5065   */\n    tag_65:\n        /* \"#utility.yul\":5019:5030   */\n      0x00\n        /* \"#utility.yul\":5056:5059   */\n      dup2\n        /* \"#utility.yul\":5041:5059   */\n      swap1\n      pop\n        /* \"#utility.yul\":4918:5065   */\n      swap3\n      swap2\n      pop\n      pop\n      jump\t// out\n        /* \"#utility.yul\":5071:5185   */\n    tag_66:\n      pop\n      jump\t// out\n        /* \"#utility.yul\":5191:5589   */\n    tag_67:\n        /* \"#utility.yul\":5350:5353   */\n      0x00\n        /* \"#utility.yul\":5371:5454   */\n      tag_127\n        /* \"#utility.yul\":5452:5453   */\n      0x00\n        /* \"#utility.yul\":5447:5450   */\n      dup4\n        /* \"#utility.yul\":5371:5454   */\n      tag_65\n      jump\t// in\n    tag_127:\n        /* \"#utility.yul\":5364:5454   */\n      swap2\n      pop\n        /* \"#utility.yul\":5463:5556   */\n      tag_128\n        /* \"#utility.yul\":5552:5555   */\n      dup3\n        /* \"#utility.yul\":5463:5556   */\n      tag_66\n      jump\t// in\n    tag_128:\n        /* \"#utility.yul\":5581:5582   */\n      0x00\n        /* \"#utility.yul\":5576:5579   */\n      dup3\n        /* \"#utility.yul\":5572:5583   */\n      add\n        /* \"#utility.yul\":5565:5583   */\n      swap1\n      pop\n        /* \"#utility.yul\":5191:5589   */\n      swap2\n      swap1\n      pop\n      jump\t// out\n        /* \"#utility.yul\":5595:5974   */\n    tag_40:\n        /* \"#utility.yul\":5779:5782   */\n      0x00\n        /* \"#utility.yul\":5801:5948   */\n      tag_130\n        /* \"#utility.yul\":5944:5947   */\n      dup3\n        /* \"#utility.yul\":5801:5948   */\n      tag_67\n      jump\t// in\n    tag_130:\n        /* \"#utility.yul\":5794:5948   */\n      swap2\n      pop\n        /* \"#utility.yul\":5965:5968   */\n      dup2\n        /* \"#utility.yul\":5958:5968   */\n      swap1\n      pop\n        /* \"#utility.yul\":5595:5974   */\n      swap2\n      swap1\n      pop\n      jump\t// out\n        /* \"#utility.yul\":5980:6153   */\n    tag_68:\n        /* \"#utility.yul\":6120:6145   */\n      0x5472616e73666572656e6369612066616c686f752e2e2e000000000000000000\n        /* \"#utility.yul\":6116:6117   */\n      0x00\n        /* \"#utility.yul\":6108:6114   */\n      dup3\n        /* \"#utility.yul\":6104:6118   */\n      add\n        /* \"#utility.yul\":6097:6146   */\n      mstore\n        /* \"#utility.yul\":5980:6153   */\n      pop\n      jump\t// out\n        /* \"#utility.yul\":6159:6525   */\n    tag_69:\n        /* \"#utility.yul\":6301:6304   */\n      0x00\n        /* \"#utility.yul\":6322:6389   */\n      tag_133\n        /* \"#utility.yul\":6386:6388   */\n      0x17\n        /* \"#utility.yul\":6381:6384   */\n      dup4\n        /* \"#utility.yul\":6322:6389   */\n      tag_59\n      jump\t// in\n    tag_133:\n        /* \"#utility.yul\":6315:6389   */\n      swap2\n      pop\n        /* \"#utility.yul\":6398:6491   */\n      tag_134\n        /* \"#utility.yul\":6487:6490   */\n      dup3\n        /* \"#utility.yul\":6398:6491   */\n      tag_68\n      jump\t// in\n    tag_134:\n        /* \"#utility.yul\":6516:6518   */\n      0x20\n        /* \"#utility.yul\":6511:6514   */\n      dup3\n        /* \"#utility.yul\":6507:6519   */\n      add\n        /* \"#utility.yul\":6500:6519   */\n      swap1\n      pop\n        /* \"#utility.yul\":6159:6525   */\n      swap2\n      swap1\n      pop\n      jump\t// out\n        /* \"#utility.yul\":6531:6950   */\n    tag_46:\n        /* \"#utility.yul\":6697:6701   */\n      0x00\n        /* \"#utility.yul\":6735:6737   */\n      0x20\n        /* \"#utility.yul\":6724:6733   */\n      dup3\n        /* \"#utility.yul\":6720:6738   */\n      add\n        /* \"#utility.yul\":6712:6738   */\n      swap1\n      pop\n        /* \"#utility.yul\":6784:6793   */\n      dup2\n        /* \"#utility.yul\":6778:6782   */\n      dup2\n        /* \"#utility.yul\":6774:6794   */\n      sub\n        /* \"#utility.yul\":6770:6771   */\n      0x00\n        /* \"#utility.yul\":6759:6768   */\n      dup4\n        /* \"#utility.yul\":6755:6772   */\n      add\n        /* \"#utility.yul\":6748:6795   */\n      mstore\n        /* \"#utility.yul\":6812:6943   */\n      tag_136\n        /* \"#utility.yul\":6938:6942   */\n      dup2\n        /* \"#utility.yul\":6812:6943   */\n      tag_69\n      jump\t// in\n    tag_136:\n        /* \"#utility.yul\":6804:6943   */\n      swap1\n      pop\n        /* \"#utility.yul\":6531:6950   */\n      swap2\n      swap1\n      pop\n      jump\t// out\n\n    auxdata: 0xa26469706673582212203d2284f28b1c89f9ae5a2a4d9a35fbdc019377cb711fdd9d2f1aae5660095a0464736f6c634300081e0033\n}\n",
				"bytecode": {
					"linkReferences": {},
					"object": "6080604052348015600e575f5ffd5b506107558061001c5f395ff3fe60806040526004361061003e575f3560e01c80630dac66bd14610042578063218895e31461007e5780633d922f90146100ba5780637371b0d6146100c4575b5f5ffd5b34801561004d575f5ffd5b5061006860048036038101906100639190610452565b6100ec565b6040516100759190610495565b60405180910390f35b348015610089575f5ffd5b506100a4600480360381019061009f9190610452565b610100565b6040516100b19190610495565b60405180910390f35b6100c2610145565b005b3480156100cf575f5ffd5b506100ea60048036038101906100e591906104d8565b610229565b005b5f602052805f5260405f205f915090505481565b5f5f5f8373ffffffffffffffffffffffffffffffffffffffff1673ffffffffffffffffffffffffffffffffffffffff1681526020019081526020015f20549050919050565b5f3411610187576040517f08c379a000000000000000000000000000000000000000000000000000000000815260040161017e9061055d565b60405180910390fd5b345f5f3373ffffffffffffffffffffffffffffffffffffffff1673ffffffffffffffffffffffffffffffffffffffff1681526020019081526020015f205f8282546101d291906105a8565b925050819055503373ffffffffffffffffffffffffffffffffffffffff167f453529dac6ef979a41d67fbeeabdfae29903c185f64d77aa690df9eca5f1aa603460405161021f9190610495565b60405180910390a2565b805f5f3373ffffffffffffffffffffffffffffffffffffffff1673ffffffffffffffffffffffffffffffffffffffff1681526020019081526020015f205410156102a8576040517f08c379a000000000000000000000000000000000000000000000000000000000815260040161029f90610625565b60405180910390fd5b805f5f3373ffffffffffffffffffffffffffffffffffffffff1673ffffffffffffffffffffffffffffffffffffffff1681526020019081526020015f205f8282546102f39190610643565b925050819055505f3373ffffffffffffffffffffffffffffffffffffffff168260405161031f906106a3565b5f6040518083038185875af1925050503d805f8114610359576040519150601f19603f3d011682016040523d82523d5f602084013e61035e565b606091505b50509050806103a2576040517f08c379a000000000000000000000000000000000000000000000000000000000815260040161039990610701565b60405180910390fd5b3373ffffffffffffffffffffffffffffffffffffffff167f014a0fee2e4f4636f4de7bc3c3662262d3d28152c5700f9ad350ef2e02a9b278836040516103e89190610495565b60405180910390a25050565b5f5ffd5b5f73ffffffffffffffffffffffffffffffffffffffff82169050919050565b5f610421826103f8565b9050919050565b61043181610417565b811461043b575f5ffd5b50565b5f8135905061044c81610428565b92915050565b5f60208284031215610467576104666103f4565b5b5f6104748482850161043e565b91505092915050565b5f819050919050565b61048f8161047d565b82525050565b5f6020820190506104a85f830184610486565b92915050565b6104b78161047d565b81146104c1575f5ffd5b50565b5f813590506104d2816104ae565b92915050565b5f602082840312156104ed576104ec6103f4565b5b5f6104fa848285016104c4565b91505092915050565b5f82825260208201905092915050565b7f656e76696520616c67756d2065746865720000000000000000000000000000005f82015250565b5f610547601183610503565b915061055282610513565b602082019050919050565b5f6020820190508181035f8301526105748161053b565b9050919050565b7f4e487b71000000000000000000000000000000000000000000000000000000005f52601160045260245ffd5b5f6105b28261047d565b91506105bd8361047d565b92508282019050808211156105d5576105d461057b565b5b92915050565b7f73616c646f20696e737566696369656e746500000000000000000000000000005f82015250565b5f61060f601283610503565b915061061a826105db565b602082019050919050565b5f6020820190508181035f83015261063c81610603565b9050919050565b5f61064d8261047d565b91506106588361047d565b92508282039050818111156106705761066f61057b565b5b92915050565b5f81905092915050565b50565b5f61068e5f83610676565b915061069982610680565b5f82019050919050565b5f6106ad82610683565b9150819050919050565b7f5472616e73666572656e6369612066616c686f752e2e2e0000000000000000005f82015250565b5f6106eb601783610503565b91506106f6826106b7565b602082019050919050565b5f6020820190508181035f830152610718816106df565b905091905056fea26469706673582212203d2284f28b1c89f9ae5a2a4d9a35fbdc019377cb711fdd9d2f1aae5660095a0464736f6c634300081e0033",
					"opcodes": "PUSH1 0x80 PUSH1 0x40 MSTORE CALLVALUE DUP1 ISZERO PUSH1 0xE JUMPI PUSH0 PUSH0 REVERT JUMPDEST POP PUSH2 0x755 DUP1 PUSH2 0x1C PUSH0 CODECOPY PUSH0 RETURN INVALID PUSH1 0x80 PUSH1 0x40 MSTORE PUSH1 0x4 CALLDATASIZE LT PUSH2 0x3E JUMPI PUSH0 CALLDATALOAD PUSH1 0xE0 SHR DUP1 PUSH4 0xDAC66BD EQ PUSH2 0x42 JUMPI DUP1 PUSH4 0x218895E3 EQ PUSH2 0x7E JUMPI DUP1 PUSH4 0x3D922F90 EQ PUSH2 0xBA JUMPI DUP1 PUSH4 0x7371B0D6 EQ PUSH2 0xC4 JUMPI JUMPDEST PUSH0 PUSH0 REVERT JUMPDEST CALLVALUE DUP1 ISZERO PUSH2 0x4D JUMPI PUSH0 PUSH0 REVERT JUMPDEST POP PUSH2 0x68 PUSH1 0x4 DUP1 CALLDATASIZE SUB DUP2 ADD SWAP1 PUSH2 0x63 SWAP2 SWAP1 PUSH2 0x452 JUMP JUMPDEST PUSH2 0xEC JUMP JUMPDEST PUSH1 0x40 MLOAD PUSH2 0x75 SWAP2 SWAP1 PUSH2 0x495 JUMP JUMPDEST PUSH1 0x40 MLOAD DUP1 SWAP2 SUB SWAP1 RETURN JUMPDEST CALLVALUE DUP1 ISZERO PUSH2 0x89 JUMPI PUSH0 PUSH0 REVERT JUMPDEST POP PUSH2 0xA4 PUSH1 0x4 DUP1 CALLDATASIZE SUB DUP2 ADD SWAP1 PUSH2 0x9F SWAP2 SWAP1 PUSH2 0x452 JUMP JUMPDEST PUSH2 0x100 JUMP JUMPDEST PUSH1 0x40 MLOAD PUSH2 0xB1 SWAP2 SWAP1 PUSH2 0x495 JUMP JUMPDEST PUSH1 0x40 MLOAD DUP1 SWAP2 SUB SWAP1 RETURN JUMPDEST PUSH2 0xC2 PUSH2 0x145 JUMP JUMPDEST STOP JUMPDEST CALLVALUE DUP1 ISZERO PUSH2 0xCF JUMPI PUSH0 PUSH0 REVERT JUMPDEST POP PUSH2 0xEA PUSH1 0x4 DUP1 CALLDATASIZE SUB DUP2 ADD SWAP1 PUSH2 0xE5 SWAP2 SWAP1 PUSH2 0x4D8 JUMP JUMPDEST PUSH2 0x229 JUMP JUMPDEST STOP JUMPDEST PUSH0 PUSH1 0x20 MSTORE DUP1 PUSH0 MSTORE PUSH1 0x40 PUSH0 KECCAK256 PUSH0 SWAP2 POP SWAP1 POP SLOAD DUP2 JUMP JUMPDEST PUSH0 PUSH0 PUSH0 DUP4 PUSH20 0xFFFFFFFFFFFFFFFFFFFFFFFFFFFFFFFFFFFFFFFF AND PUSH20 0xFFFFFFFFFFFFFFFFFFFFFFFFFFFFFFFFFFFFFFFF AND DUP2 MSTORE PUSH1 0x20 ADD SWAP1 DUP2 MSTORE PUSH1 0x20 ADD PUSH0 KECCAK256 SLOAD SWAP1 POP SWAP2 SWAP1 POP JUMP JUMPDEST PUSH0 CALLVALUE GT PUSH2 0x187 JUMPI PUSH1 0x40 MLOAD PUSH32 0x8C379A000000000000000000000000000000000000000000000000000000000 DUP2 MSTORE PUSH1 0x4 ADD PUSH2 0x17E SWAP1 PUSH2 0x55D JUMP JUMPDEST PUSH1 0x40 MLOAD DUP1 SWAP2 SUB SWAP1 REVERT JUMPDEST CALLVALUE PUSH0 PUSH0 CALLER PUSH20 0xFFFFFFFFFFFFFFFFFFFFFFFFFFFFFFFFFFFFFFFF AND PUSH20 0xFFFFFFFFFFFFFFFFFFFFFFFFFFFFFFFFFFFFFFFF AND DUP2 MSTORE PUSH1 0x20 ADD SWAP1 DUP2 MSTORE PUSH1 0x20 ADD PUSH0 KECCAK256 PUSH0 DUP3 DUP3 SLOAD PUSH2 0x1D2 SWAP2 SWAP1 PUSH2 0x5A8 JUMP JUMPDEST SWAP3 POP POP DUP2 SWAP1 SSTORE POP CALLER PUSH20 0xFFFFFFFFFFFFFFFFFFFFFFFFFFFFFFFFFFFFFFFF AND PUSH32 0x453529DAC6EF979A41D67FBEEABDFAE29903C185F64D77AA690DF9ECA5F1AA60 CALLVALUE PUSH1 0x40 MLOAD PUSH2 0x21F SWAP2 SWAP1 PUSH2 0x495 JUMP JUMPDEST PUSH1 0x40 MLOAD DUP1 SWAP2 SUB SWAP1 LOG2 JUMP JUMPDEST DUP1 PUSH0 PUSH0 CALLER PUSH20 0xFFFFFFFFFFFFFFFFFFFFFFFFFFFFFFFFFFFFFFFF AND PUSH20 0xFFFFFFFFFFFFFFFFFFFFFFFFFFFFFFFFFFFFFFFF AND DUP2 MSTORE PUSH1 0x20 ADD SWAP1 DUP2 MSTORE PUSH1 0x20 ADD PUSH0 KECCAK256 SLOAD LT ISZERO PUSH2 0x2A8 JUMPI PUSH1 0x40 MLOAD PUSH32 0x8C379A000000000000000000000000000000000000000000000000000000000 DUP2 MSTORE PUSH1 0x4 ADD PUSH2 0x29F SWAP1 PUSH2 0x625 JUMP JUMPDEST PUSH1 0x40 MLOAD DUP1 SWAP2 SUB SWAP1 REVERT JUMPDEST DUP1 PUSH0 PUSH0 CALLER PUSH20 0xFFFFFFFFFFFFFFFFFFFFFFFFFFFFFFFFFFFFFFFF AND PUSH20 0xFFFFFFFFFFFFFFFFFFFFFFFFFFFFFFFFFFFFFFFF AND DUP2 MSTORE PUSH1 0x20 ADD SWAP1 DUP2 MSTORE PUSH1 0x20 ADD PUSH0 KECCAK256 PUSH0 DUP3 DUP3 SLOAD PUSH2 0x2F3 SWAP2 SWAP1 PUSH2 0x643 JUMP JUMPDEST SWAP3 POP POP DUP2 SWAP1 SSTORE POP PUSH0 CALLER PUSH20 0xFFFFFFFFFFFFFFFFFFFFFFFFFFFFFFFFFFFFFFFF AND DUP3 PUSH1 0x40 MLOAD PUSH2 0x31F SWAP1 PUSH2 0x6A3 JUMP JUMPDEST PUSH0 PUSH1 0x40 MLOAD DUP1 DUP4 SUB DUP2 DUP6 DUP8 GAS CALL SWAP3 POP POP POP RETURNDATASIZE DUP1 PUSH0 DUP2 EQ PUSH2 0x359 JUMPI PUSH1 0x40 MLOAD SWAP2 POP PUSH1 0x1F NOT PUSH1 0x3F RETURNDATASIZE ADD AND DUP3 ADD PUSH1 0x40 MSTORE RETURNDATASIZE DUP3 MSTORE RETURNDATASIZE PUSH0 PUSH1 0x20 DUP5 ADD RETURNDATACOPY PUSH2 0x35E JUMP JUMPDEST PUSH1 0x60 SWAP2 POP JUMPDEST POP POP SWAP1 POP DUP1 PUSH2 0x3A2 JUMPI PUSH1 0x40 MLOAD PUSH32 0x8C379A000000000000000000000000000000000000000000000000000000000 DUP2 MSTORE PUSH1 0x4 ADD PUSH2 0x399 SWAP1 PUSH2 0x701 JUMP JUMPDEST PUSH1 0x40 MLOAD DUP1 SWAP2 SUB SWAP1 REVERT JUMPDEST CALLER PUSH20 0xFFFFFFFFFFFFFFFFFFFFFFFFFFFFFFFFFFFFFFFF AND PUSH32 0x14A0FEE2E4F4636F4DE7BC3C3662262D3D28152C5700F9AD350EF2E02A9B278 DUP4 PUSH1 0x40 MLOAD PUSH2 0x3E8 SWAP2 SWAP1 PUSH2 0x495 JUMP JUMPDEST PUSH1 0x40 MLOAD DUP1 SWAP2 SUB SWAP1 LOG2 POP POP JUMP JUMPDEST PUSH0 PUSH0 REVERT JUMPDEST PUSH0 PUSH20 0xFFFFFFFFFFFFFFFFFFFFFFFFFFFFFFFFFFFFFFFF DUP3 AND SWAP1 POP SWAP2 SWAP1 POP JUMP JUMPDEST PUSH0 PUSH2 0x421 DUP3 PUSH2 0x3F8 JUMP JUMPDEST SWAP1 POP SWAP2 SWAP1 POP JUMP JUMPDEST PUSH2 0x431 DUP2 PUSH2 0x417 JUMP JUMPDEST DUP2 EQ PUSH2 0x43B JUMPI PUSH0 PUSH0 REVERT JUMPDEST POP JUMP JUMPDEST PUSH0 DUP2 CALLDATALOAD SWAP1 POP PUSH2 0x44C DUP2 PUSH2 0x428 JUMP JUMPDEST SWAP3 SWAP2 POP POP JUMP JUMPDEST PUSH0 PUSH1 0x20 DUP3 DUP5 SUB SLT ISZERO PUSH2 0x467 JUMPI PUSH2 0x466 PUSH2 0x3F4 JUMP JUMPDEST JUMPDEST PUSH0 PUSH2 0x474 DUP5 DUP3 DUP6 ADD PUSH2 0x43E JUMP JUMPDEST SWAP2 POP POP SWAP3 SWAP2 POP POP JUMP JUMPDEST PUSH0 DUP2 SWAP1 POP SWAP2 SWAP1 POP JUMP JUMPDEST PUSH2 0x48F DUP2 PUSH2 0x47D JUMP JUMPDEST DUP3 MSTORE POP POP JUMP JUMPDEST PUSH0 PUSH1 0x20 DUP3 ADD SWAP1 POP PUSH2 0x4A8 PUSH0 DUP4 ADD DUP5 PUSH2 0x486 JUMP JUMPDEST SWAP3 SWAP2 POP POP JUMP JUMPDEST PUSH2 0x4B7 DUP2 PUSH2 0x47D JUMP JUMPDEST DUP2 EQ PUSH2 0x4C1 JUMPI PUSH0 PUSH0 REVERT JUMPDEST POP JUMP JUMPDEST PUSH0 DUP2 CALLDATALOAD SWAP1 POP PUSH2 0x4D2 DUP2 PUSH2 0x4AE JUMP JUMPDEST SWAP3 SWAP2 POP POP JUMP JUMPDEST PUSH0 PUSH1 0x20 DUP3 DUP5 SUB SLT ISZERO PUSH2 0x4ED JUMPI PUSH2 0x4EC PUSH2 0x3F4 JUMP JUMPDEST JUMPDEST PUSH0 PUSH2 0x4FA DUP5 DUP3 DUP6 ADD PUSH2 0x4C4 JUMP JUMPDEST SWAP2 POP POP SWAP3 SWAP2 POP POP JUMP JUMPDEST PUSH0 DUP3 DUP3 MSTORE PUSH1 0x20 DUP3 ADD SWAP1 POP SWAP3 SWAP2 POP POP JUMP JUMPDEST PUSH32 0x656E76696520616C67756D206574686572000000000000000000000000000000 PUSH0 DUP3 ADD MSTORE POP JUMP JUMPDEST PUSH0 PUSH2 0x547 PUSH1 0x11 DUP4 PUSH2 0x503 JUMP JUMPDEST SWAP2 POP PUSH2 0x552 DUP3 PUSH2 0x513 JUMP JUMPDEST PUSH1 0x20 DUP3 ADD SWAP1 POP SWAP2 SWAP1 POP JUMP JUMPDEST PUSH0 PUSH1 0x20 DUP3 ADD SWAP1 POP DUP2 DUP2 SUB PUSH0 DUP4 ADD MSTORE PUSH2 0x574 DUP2 PUSH2 0x53B JUMP JUMPDEST SWAP1 POP SWAP2 SWAP1 POP JUMP JUMPDEST PUSH32 0x4E487B7100000000000000000000000000000000000000000000000000000000 PUSH0 MSTORE PUSH1 0x11 PUSH1 0x4 MSTORE PUSH1 0x24 PUSH0 REVERT JUMPDEST PUSH0 PUSH2 0x5B2 DUP3 PUSH2 0x47D JUMP JUMPDEST SWAP2 POP PUSH2 0x5BD DUP4 PUSH2 0x47D JUMP JUMPDEST SWAP3 POP DUP3 DUP3 ADD SWAP1 POP DUP1 DUP3 GT ISZERO PUSH2 0x5D5 JUMPI PUSH2 0x5D4 PUSH2 0x57B JUMP JUMPDEST JUMPDEST SWAP3 SWAP2 POP POP JUMP JUMPDEST PUSH32 0x73616C646F20696E737566696369656E74650000000000000000000000000000 PUSH0 DUP3 ADD MSTORE POP JUMP JUMPDEST PUSH0 PUSH2 0x60F PUSH1 0x12 DUP4 PUSH2 0x503 JUMP JUMPDEST SWAP2 POP PUSH2 0x61A DUP3 PUSH2 0x5DB JUMP JUMPDEST PUSH1 0x20 DUP3 ADD SWAP1 POP SWAP2 SWAP1 POP JUMP JUMPDEST PUSH0 PUSH1 0x20 DUP3 ADD SWAP1 POP DUP2 DUP2 SUB PUSH0 DUP4 ADD MSTORE PUSH2 0x63C DUP2 PUSH2 0x603 JUMP JUMPDEST SWAP1 POP SWAP2 SWAP1 POP JUMP JUMPDEST PUSH0 PUSH2 0x64D DUP3 PUSH2 0x47D JUMP JUMPDEST SWAP2 POP PUSH2 0x658 DUP4 PUSH2 0x47D JUMP JUMPDEST SWAP3 POP DUP3 DUP3 SUB SWAP1 POP DUP2 DUP2 GT ISZERO PUSH2 0x670 JUMPI PUSH2 0x66F PUSH2 0x57B JUMP JUMPDEST JUMPDEST SWAP3 SWAP2 POP POP JUMP JUMPDEST PUSH0 DUP2 SWAP1 POP SWAP3 SWAP2 POP POP JUMP JUMPDEST POP JUMP JUMPDEST PUSH0 PUSH2 0x68E PUSH0 DUP4 PUSH2 0x676 JUMP JUMPDEST SWAP2 POP PUSH2 0x699 DUP3 PUSH2 0x680 JUMP JUMPDEST PUSH0 DUP3 ADD SWAP1 POP SWAP2 SWAP1 POP JUMP JUMPDEST PUSH0 PUSH2 0x6AD DUP3 PUSH2 0x683 JUMP JUMPDEST SWAP2 POP DUP2 SWAP1 POP SWAP2 SWAP1 POP JUMP JUMPDEST PUSH32 0x5472616E73666572656E6369612066616C686F752E2E2E000000000000000000 PUSH0 DUP3 ADD MSTORE POP JUMP JUMPDEST PUSH0 PUSH2 0x6EB PUSH1 0x17 DUP4 PUSH2 0x503 JUMP JUMPDEST SWAP2 POP PUSH2 0x6F6 DUP3 PUSH2 0x6B7 JUMP JUMPDEST PUSH1 0x20 DUP3 ADD SWAP1 POP SWAP2 SWAP1 POP JUMP JUMPDEST PUSH0 PUSH1 0x20 DUP3 ADD SWAP1 POP DUP2 DUP2 SUB PUSH0 DUP4 ADD MSTORE PUSH2 0x718 DUP2 PUSH2 0x6DF JUMP JUMPDEST SWAP1 POP SWAP2 SWAP1 POP JUMP INVALID LOG2 PUSH5 0x6970667358 0x22 SLT KECCAK256 RETURNDATASIZE 0x22 DUP5 CALLCODE DUP12 SHR DUP10 EXTDELEGATECALL 0xAE GAS 0x2A 0x4D SWAP11 CALLDATALOAD EXTSTATICCALL 0xDC ADD SWAP4 PUSH24 0xCB711FDD9D2F1AAE5660095A0464736F6C634300081E0033 "
				},
				"gasEstimates": {
					"creation": {
						"codeDepositCost": "375400",
						"executionCost": "409",
						"totalCost": "375809"
					},
					"external": {
						"consultarSaldo(address)": "2828",
						"creditos(address)": "2779",
						"depositar()": "infinite",
						"sacar(uint256)": "infinite"
					}
				},
				"methodIdentifiers": {
					"consultarSaldo(address)": "218895e3",
					"creditos(address)": "0dac66bd",
					"depositar()": "3d922f90",
					"sacar(uint256)": "7371b0d6"
				}
			},
			"storageLayout": {
				"storage": [
					{
						"astId": 8,
						"contract": "cofre.sol:Cofre",
						"label": "creditos",
						"offset": 0,
						"slot": "0",
						"type": "t_mapping(t_address,t_uint256)"
					}
				],
				"types": {
					"t_address": {
						"encoding": "inplace",
						"label": "address",
						"numberOfBytes": "20"
					},
					"t_mapping(t_address,t_uint256)": {
						"encoding": "mapping",
						"key": "t_address",
						"label": "mapping(address => uint256)",
						"numberOfBytes": "32",
						"value": "t_uint256"
					},
					"t_uint256": {
						"encoding": "inplace",
						"label": "uint256",
						"numberOfBytes": "32"
					}
				}
			},
			"userdoc": {
				"kind": "user",
				"methods": {},
				"version": 1
			}
		}
	}
}