{
	"Bank.sol": {
		"PiggyBank": {
			"abi": [
				{
					"inputs": [],
					"stateMutability": "nonpayable",
					"type": "constructor"
				},
				{
					"inputs": [],
					"name": "deposit",
					"outputs": [],
					"stateMutability": "payable",
					"type": "function"
				},
				{
					"inputs": [
						{
							"internalType": "address",
							"name": "",
							"type": "address"
						}
					],
					"name": "deposits",
					"outputs": [
						{
							"internalType": "uint256",
							"name": "totalDeposited",
							"type": "uint256"
						},
						{
							"internalType": "uint256",
							"name": "depositCount",
							"type": "uint256"
						}
					],
					"stateMutability": "view",
					"type": "function"
				},
				{
					"inputs": [],
					"name": "getBalance",
					"outputs": [
						{
							"internalType": "uint256",
							"name": "",
							"type": "uint256"
						}
					],
					"stateMutability": "view",
					"type": "function"
				},
				{
					"inputs": [
						{
							"internalType": "address",
							"name": "_depositor",
							"type": "address"
						}
					],
					"name": "getDeposit",
					"outputs": [
						{
							"internalType": "uint256",
							"name": "count",
							"type": "uint256"
						},
						{
							"internalType": "uint256",
							"name": "total",
							"type": "uint256"
						}
					],
					"stateMutability": "view",
					"type": "function"
				},
				{
					"inputs": [],
					"name": "owner",
					"outputs": [
						{
							"internalType": "address payable",
							"name": "",
							"type": "address"
						}
					],
					"stateMutability": "view",
					"type": "function"
				},
				{
					"inputs": [],
					"name": "withdraw",
					"outputs": [],
					"stateMutability": "nonpayable",
					"type": "function"
				},
				{
					"stateMutability": "payable",
					"type": "receive"
				}
			],
			"devdoc": {
				"kind": "dev",
				"methods": {},
				"version": 1
			},
			"evm": {
				"assembly": "    /* \"Bank.sol\":57:1376  contract PiggyBank {... */\n  mstore(0x40, 0x80)\n    /* \"Bank.sol\":269:327  constructor() {... */\n  callvalue\n  dup1\n  iszero\n  tag_1\n  jumpi\n  revert(0x00, 0x00)\ntag_1:\n  pop\n    /* \"Bank.sol\":309:319  msg.sender */\n  caller\n    /* \"Bank.sol\":293:298  owner */\n  0x00\n  0x00\n    /* \"Bank.sol\":293:320  owner = payable(msg.sender) */\n  0x0100\n  exp\n  dup2\n  sload\n  dup2\n  0xffffffffffffffffffffffffffffffffffffffff\n  mul\n  not\n  and\n  swap1\n  dup4\n  0xffffffffffffffffffffffffffffffffffffffff\n  and\n  mul\n  or\n  swap1\n  sstore\n  pop\n    /* \"Bank.sol\":57:1376  contract PiggyBank {... */\n  dataSize(sub_0)\n  dup1\n  dataOffset(sub_0)\n  0x00\n  codecopy\n  0x00\n  return\nstop\n\nsub_0: assembly {\n        /* \"Bank.sol\":57:1376  contract PiggyBank {... */\n      mstore(0x40, 0x80)\n      jumpi(tag_1, lt(calldatasize, 0x04))\n      shr(0xe0, calldataload(0x00))\n      dup1\n      0x12065fe0\n      eq\n      tag_3\n      jumpi\n      dup1\n      0x3ccfd60b\n      eq\n      tag_4\n      jumpi\n      dup1\n      0x8da5cb5b\n      eq\n      tag_5\n      jumpi\n      dup1\n      0xd0e30db0\n      eq\n      tag_6\n      jumpi\n      dup1\n      0xe1254fba\n      eq\n      tag_7\n      jumpi\n      dup1\n      0xfc7e286d\n      eq\n      tag_8\n      jumpi\n      jump(tag_2)\n    tag_1:\n      jumpi(tag_2, calldatasize)\n        /* \"Bank.sol\":390:391  0 */\n      0x00\n        /* \"Bank.sol\":378:387  msg.value */\n      callvalue\n        /* \"Bank.sol\":378:391  msg.value > 0 */\n      gt\n        /* \"Bank.sol\":370:427  require(msg.value > 0, \"value must be greater than zero\") */\n      tag_11\n      jumpi\n      mload(0x40)\n      0x08c379a000000000000000000000000000000000000000000000000000000000\n      dup2\n      mstore\n      0x04\n      add\n      tag_12\n      swap1\n      tag_13\n      jump\t// in\n    tag_12:\n      mload(0x40)\n      dup1\n      swap2\n      sub\n      swap1\n      revert\n    tag_11:\n        /* \"Bank.sol\":476:485  msg.value */\n      callvalue\n        /* \"Bank.sol\":437:445  deposits */\n      0x01\n        /* \"Bank.sol\":437:457  deposits[msg.sender] */\n      0x00\n        /* \"Bank.sol\":446:456  msg.sender */\n      caller\n        /* \"Bank.sol\":437:457  deposits[msg.sender] */\n      0xffffffffffffffffffffffffffffffffffffffff\n      and\n      0xffffffffffffffffffffffffffffffffffffffff\n      and\n      dup2\n      mstore\n      0x20\n      add\n      swap1\n      dup2\n      mstore\n      0x20\n      add\n      0x00\n      keccak256\n        /* \"Bank.sol\":437:472  deposits[msg.sender].totalDeposited */\n      0x00\n      add\n      0x00\n        /* \"Bank.sol\":437:485  deposits[msg.sender].totalDeposited += msg.value */\n      dup3\n      dup3\n      sload\n      tag_14\n      swap2\n      swap1\n      tag_15\n      jump\t// in\n    tag_14:\n      swap3\n      pop\n      pop\n      dup2\n      swap1\n      sstore\n      pop\n        /* \"Bank.sol\":495:503  deposits */\n      0x01\n        /* \"Bank.sol\":495:515  deposits[msg.sender] */\n      0x00\n        /* \"Bank.sol\":504:514  msg.sender */\n      caller\n        /* \"Bank.sol\":495:515  deposits[msg.sender] */\n      0xffffffffffffffffffffffffffffffffffffffff\n      and\n      0xffffffffffffffffffffffffffffffffffffffff\n      and\n      dup2\n      mstore\n      0x20\n      add\n      swap1\n      dup2\n      mstore\n      0x20\n      add\n      0x00\n      keccak256\n        /* \"Bank.sol\":495:528  deposits[msg.sender].depositCount */\n      0x01\n      add\n      0x00\n        /* \"Bank.sol\":495:530  deposits[msg.sender].depositCount++ */\n      dup2\n      sload\n      dup1\n      swap3\n      swap2\n      swap1\n      tag_16\n      swap1\n      tag_17\n      jump\t// in\n    tag_16:\n      swap2\n      swap1\n      pop\n      sstore\n      stop\n        /* \"Bank.sol\":57:1376  contract PiggyBank {... */\n    tag_2:\n      revert(0x00, 0x00)\n        /* \"Bank.sol\":995:1092  function getBalance() public view returns (uint256) {... */\n    tag_3:\n      callvalue\n      dup1\n      iszero\n      tag_18\n      jumpi\n      revert(0x00, 0x00)\n    tag_18:\n      pop\n      tag_19\n      tag_20\n      jump\t// in\n    tag_19:\n      mload(0x40)\n      tag_21\n      swap2\n      swap1\n      tag_22\n      jump\t// in\n    tag_21:\n      mload(0x40)\n      dup1\n      swap2\n      sub\n      swap1\n      return\n        /* \"Bank.sol\":762:989  function withdraw() public {... */\n    tag_4:\n      callvalue\n      dup1\n      iszero\n      tag_23\n      jumpi\n      revert(0x00, 0x00)\n    tag_23:\n      pop\n      tag_24\n      tag_25\n      jump\t// in\n    tag_24:\n      stop\n        /* \"Bank.sol\":82:110  address payable public owner */\n    tag_5:\n      callvalue\n      dup1\n      iszero\n      tag_26\n      jumpi\n      revert(0x00, 0x00)\n    tag_26:\n      pop\n      tag_27\n      tag_28\n      jump\t// in\n    tag_27:\n      mload(0x40)\n      tag_29\n      swap2\n      swap1\n      tag_30\n      jump\t// in\n    tag_29:\n      mload(0x40)\n      dup1\n      swap2\n      sub\n      swap1\n      return\n        /* \"Bank.sol\":543:756  function deposit() external payable {... */\n    tag_6:\n      tag_31\n      tag_32\n      jump\t// in\n    tag_31:\n      stop\n        /* \"Bank.sol\":1098:1374  function getDeposit(address _depositor) public view returns (uint256 count, uint256 total) {... */\n    tag_7:\n      callvalue\n      dup1\n      iszero\n      tag_33\n      jumpi\n      revert(0x00, 0x00)\n    tag_33:\n      pop\n      tag_34\n      0x04\n      dup1\n      calldatasize\n      sub\n      dup2\n      add\n      swap1\n      tag_35\n      swap2\n      swap1\n      tag_36\n      jump\t// in\n    tag_35:\n      tag_37\n      jump\t// in\n    tag_34:\n      mload(0x40)\n      tag_38\n      swap3\n      swap2\n      swap1\n      tag_39\n      jump\t// in\n    tag_38:\n      mload(0x40)\n      dup1\n      swap2\n      sub\n      swap1\n      return\n        /* \"Bank.sol\":217:262  mapping(address => Depositor) public deposits */\n    tag_8:\n      callvalue\n      dup1\n      iszero\n      tag_40\n      jumpi\n      revert(0x00, 0x00)\n    tag_40:\n      pop\n      tag_41\n      0x04\n      dup1\n      calldatasize\n      sub\n      dup2\n      add\n      swap1\n      tag_42\n      swap2\n      swap1\n      tag_36\n      jump\t// in\n    tag_42:\n      tag_43\n      jump\t// in\n    tag_41:\n      mload(0x40)\n      tag_44\n      swap3\n      swap2\n      swap1\n      tag_39\n      jump\t// in\n    tag_44:\n      mload(0x40)\n      dup1\n      swap2\n      sub\n      swap1\n      return\n        /* \"Bank.sol\":995:1092  function getBalance() public view returns (uint256) {... */\n    tag_20:\n        /* \"Bank.sol\":1038:1045  uint256 */\n      0x00\n        /* \"Bank.sol\":1064:1085  address(this).balance */\n      selfbalance\n        /* \"Bank.sol\":1057:1085  return address(this).balance */\n      swap1\n      pop\n        /* \"Bank.sol\":995:1092  function getBalance() public view returns (uint256) {... */\n      swap1\n      jump\t// out\n        /* \"Bank.sol\":762:989  function withdraw() public {... */\n    tag_25:\n        /* \"Bank.sol\":821:826  owner */\n      0x00\n      0x00\n      swap1\n      sload\n      swap1\n      0x0100\n      exp\n      swap1\n      div\n      0xffffffffffffffffffffffffffffffffffffffff\n      and\n        /* \"Bank.sol\":807:826  msg.sender == owner */\n      0xffffffffffffffffffffffffffffffffffffffff\n      and\n        /* \"Bank.sol\":807:817  msg.sender */\n      caller\n        /* \"Bank.sol\":807:826  msg.sender == owner */\n      0xffffffffffffffffffffffffffffffffffffffff\n      and\n      eq\n        /* \"Bank.sol\":799:854  require(msg.sender == owner, \"only owner can withdraw\") */\n      tag_47\n      jumpi\n      mload(0x40)\n      0x08c379a000000000000000000000000000000000000000000000000000000000\n      dup2\n      mstore\n      0x04\n      add\n      tag_48\n      swap1\n      tag_49\n      jump\t// in\n    tag_48:\n      mload(0x40)\n      dup1\n      swap2\n      sub\n      swap1\n      revert\n    tag_47:\n        /* \"Bank.sol\":896:897  0 */\n      0x00\n        /* \"Bank.sol\":872:893  address(this).balance */\n      selfbalance\n        /* \"Bank.sol\":872:897  address(this).balance > 0 */\n      gt\n        /* \"Bank.sol\":864:935  require(address(this).balance > 0, \"balance must be greater than zero\") */\n      tag_50\n      jumpi\n      mload(0x40)\n      0x08c379a000000000000000000000000000000000000000000000000000000000\n      dup2\n      mstore\n      0x04\n      add\n      tag_51\n      swap1\n      tag_52\n      jump\t// in\n    tag_51:\n      mload(0x40)\n      dup1\n      swap2\n      sub\n      swap1\n      revert\n    tag_50:\n        /* \"Bank.sol\":945:950  owner */\n      0x00\n      0x00\n      swap1\n      sload\n      swap1\n      0x0100\n      exp\n      swap1\n      div\n      0xffffffffffffffffffffffffffffffffffffffff\n      and\n        /* \"Bank.sol\":945:959  owner.transfer */\n      0xffffffffffffffffffffffffffffffffffffffff\n      and\n        /* \"Bank.sol\":945:982  owner.transfer(address(this).balance) */\n      0x08fc\n        /* \"Bank.sol\":960:981  address(this).balance */\n      selfbalance\n        /* \"Bank.sol\":945:982  owner.transfer(address(this).balance) */\n      swap1\n      dup2\n      iszero\n      mul\n      swap1\n      mload(0x40)\n      0x00\n      mload(0x40)\n      dup1\n      dup4\n      sub\n      dup2\n      dup6\n      dup9\n      dup9\n      call\n      swap4\n      pop\n      pop\n      pop\n      pop\n      iszero\n      dup1\n      iszero\n      tag_54\n      jumpi\n      returndatacopy(0x00, 0x00, returndatasize)\n      revert(0x00, returndatasize)\n    tag_54:\n      pop\n        /* \"Bank.sol\":762:989  function withdraw() public {... */\n      jump\t// out\n        /* \"Bank.sol\":82:110  address payable public owner */\n    tag_28:\n      0x00\n      0x00\n      swap1\n      sload\n      swap1\n      0x0100\n      exp\n      swap1\n      div\n      0xffffffffffffffffffffffffffffffffffffffff\n      and\n      dup2\n      jump\t// out\n        /* \"Bank.sol\":543:756  function deposit() external payable {... */\n    tag_32:\n        /* \"Bank.sol\":609:610  0 */\n      0x00\n        /* \"Bank.sol\":597:606  msg.value */\n      callvalue\n        /* \"Bank.sol\":597:610  msg.value > 0 */\n      gt\n        /* \"Bank.sol\":589:646  require(msg.value > 0, \"value must be greater than zero\") */\n      tag_56\n      jumpi\n      mload(0x40)\n      0x08c379a000000000000000000000000000000000000000000000000000000000\n      dup2\n      mstore\n      0x04\n      add\n      tag_57\n      swap1\n      tag_13\n      jump\t// in\n    tag_57:\n      mload(0x40)\n      dup1\n      swap2\n      sub\n      swap1\n      revert\n    tag_56:\n        /* \"Bank.sol\":695:704  msg.value */\n      callvalue\n        /* \"Bank.sol\":656:664  deposits */\n      0x01\n        /* \"Bank.sol\":656:676  deposits[msg.sender] */\n      0x00\n        /* \"Bank.sol\":665:675  msg.sender */\n      caller\n        /* \"Bank.sol\":656:676  deposits[msg.sender] */\n      0xffffffffffffffffffffffffffffffffffffffff\n      and\n      0xffffffffffffffffffffffffffffffffffffffff\n      and\n      dup2\n      mstore\n      0x20\n      add\n      swap1\n      dup2\n      mstore\n      0x20\n      add\n      0x00\n      keccak256\n        /* \"Bank.sol\":656:691  deposits[msg.sender].totalDeposited */\n      0x00\n      add\n      0x00\n        /* \"Bank.sol\":656:704  deposits[msg.sender].totalDeposited += msg.value */\n      dup3\n      dup3\n      sload\n      tag_58\n      swap2\n      swap1\n      tag_15\n      jump\t// in\n    tag_58:\n      swap3\n      pop\n      pop\n      dup2\n      swap1\n      sstore\n      pop\n        /* \"Bank.sol\":714:722  deposits */\n      0x01\n        /* \"Bank.sol\":714:734  deposits[msg.sender] */\n      0x00\n        /* \"Bank.sol\":723:733  msg.sender */\n      caller\n        /* \"Bank.sol\":714:734  deposits[msg.sender] */\n      0xffffffffffffffffffffffffffffffffffffffff\n      and\n      0xffffffffffffffffffffffffffffffffffffffff\n      and\n      dup2\n      mstore\n      0x20\n      add\n      swap1\n      dup2\n      mstore\n      0x20\n      add\n      0x00\n      keccak256\n        /* \"Bank.sol\":714:747  deposits[msg.sender].depositCount */\n      0x01\n      add\n      0x00\n        /* \"Bank.sol\":714:749  deposits[msg.sender].depositCount++ */\n      dup2\n      sload\n      dup1\n      swap3\n      swap2\n      swap1\n      tag_59\n      swap1\n      tag_17\n      jump\t// in\n    tag_59:\n      swap2\n      swap1\n      pop\n      sstore\n      pop\n        /* \"Bank.sol\":543:756  function deposit() external payable {... */\n      jump\t// out\n        /* \"Bank.sol\":1098:1374  function getDeposit(address _depositor) public view returns (uint256 count, uint256 total) {... */\n    tag_37:\n        /* \"Bank.sol\":1159:1172  uint256 count */\n      0x00\n        /* \"Bank.sol\":1174:1187  uint256 total */\n      0x00\n        /* \"Bank.sol\":1243:1244  0 */\n      0x00\n        /* \"Bank.sol\":1207:1215  deposits */\n      0x01\n        /* \"Bank.sol\":1207:1227  deposits[_depositor] */\n      0x00\n        /* \"Bank.sol\":1216:1226  _depositor */\n      dup6\n        /* \"Bank.sol\":1207:1227  deposits[_depositor] */\n      0xffffffffffffffffffffffffffffffffffffffff\n      and\n      0xffffffffffffffffffffffffffffffffffffffff\n      and\n      dup2\n      mstore\n      0x20\n      add\n      swap1\n      dup2\n      mstore\n      0x20\n      add\n      0x00\n      keccak256\n        /* \"Bank.sol\":1207:1240  deposits[_depositor].depositCount */\n      0x01\n      add\n      sload\n        /* \"Bank.sol\":1207:1244  deposits[_depositor].depositCount > 0 */\n      gt\n        /* \"Bank.sol\":1199:1264  require(deposits[_depositor].depositCount > 0, \"invalid address\") */\n      tag_61\n      jumpi\n      mload(0x40)\n      0x08c379a000000000000000000000000000000000000000000000000000000000\n      dup2\n      mstore\n      0x04\n      add\n      tag_62\n      swap1\n      tag_63\n      jump\t// in\n    tag_62:\n      mload(0x40)\n      dup1\n      swap2\n      sub\n      swap1\n      revert\n    tag_61:\n        /* \"Bank.sol\":1274:1293  Depositor storage d */\n      0x00\n        /* \"Bank.sol\":1296:1304  deposits */\n      0x01\n        /* \"Bank.sol\":1296:1316  deposits[_depositor] */\n      0x00\n        /* \"Bank.sol\":1305:1315  _depositor */\n      dup6\n        /* \"Bank.sol\":1296:1316  deposits[_depositor] */\n      0xffffffffffffffffffffffffffffffffffffffff\n      and\n      0xffffffffffffffffffffffffffffffffffffffff\n      and\n      dup2\n      mstore\n      0x20\n      add\n      swap1\n      dup2\n      mstore\n      0x20\n      add\n      0x00\n      keccak256\n        /* \"Bank.sol\":1274:1316  Depositor storage d = deposits[_depositor] */\n      swap1\n      pop\n        /* \"Bank.sol\":1334:1335  d */\n      dup1\n        /* \"Bank.sol\":1334:1348  d.depositCount */\n      0x01\n      add\n      sload\n        /* \"Bank.sol\":1350:1351  d */\n      dup2\n        /* \"Bank.sol\":1350:1366  d.totalDeposited */\n      0x00\n      add\n      sload\n        /* \"Bank.sol\":1326:1367  return (d.depositCount, d.totalDeposited) */\n      swap3\n      pop\n      swap3\n      pop\n      pop\n        /* \"Bank.sol\":1098:1374  function getDeposit(address _depositor) public view returns (uint256 count, uint256 total) {... */\n      swap2\n      pop\n      swap2\n      jump\t// out\n        /* \"Bank.sol\":217:262  mapping(address => Depositor) public deposits */\n    tag_43:\n      mstore(0x20, 0x01)\n      dup1\n      0x00\n      mstore\n      keccak256(0x00, 0x40)\n      0x00\n      swap2\n      pop\n      swap1\n      pop\n      dup1\n      0x00\n      add\n      sload\n      swap1\n      dup1\n      0x01\n      add\n      sload\n      swap1\n      pop\n      dup3\n      jump\t// out\n        /* \"#utility.yul\":7:176   */\n    tag_64:\n        /* \"#utility.yul\":91:102   */\n      0x00\n        /* \"#utility.yul\":125:131   */\n      dup3\n        /* \"#utility.yul\":120:123   */\n      dup3\n        /* \"#utility.yul\":113:132   */\n      mstore\n        /* \"#utility.yul\":165:169   */\n      0x20\n        /* \"#utility.yul\":160:163   */\n      dup3\n        /* \"#utility.yul\":156:170   */\n      add\n        /* \"#utility.yul\":141:170   */\n      swap1\n      pop\n        /* \"#utility.yul\":7:176   */\n      swap3\n      swap2\n      pop\n      pop\n      jump\t// out\n        /* \"#utility.yul\":182:363   */\n    tag_65:\n        /* \"#utility.yul\":322:355   */\n      0x76616c7565206d7573742062652067726561746572207468616e207a65726f00\n        /* \"#utility.yul\":318:319   */\n      0x00\n        /* \"#utility.yul\":310:316   */\n      dup3\n        /* \"#utility.yul\":306:320   */\n      add\n        /* \"#utility.yul\":299:356   */\n      mstore\n        /* \"#utility.yul\":182:363   */\n      pop\n      jump\t// out\n        /* \"#utility.yul\":369:735   */\n    tag_66:\n        /* \"#utility.yul\":511:514   */\n      0x00\n        /* \"#utility.yul\":532:599   */\n      tag_89\n        /* \"#utility.yul\":596:598   */\n      0x1f\n        /* \"#utility.yul\":591:594   */\n      dup4\n        /* \"#utility.yul\":532:599   */\n      tag_64\n      jump\t// in\n    tag_89:\n        /* \"#utility.yul\":525:599   */\n      swap2\n      pop\n        /* \"#utility.yul\":608:701   */\n      tag_90\n        /* \"#utility.yul\":697:700   */\n      dup3\n        /* \"#utility.yul\":608:701   */\n      tag_65\n      jump\t// in\n    tag_90:\n        /* \"#utility.yul\":726:728   */\n      0x20\n        /* \"#utility.yul\":721:724   */\n      dup3\n        /* \"#utility.yul\":717:729   */\n      add\n        /* \"#utility.yul\":710:729   */\n      swap1\n      pop\n        /* \"#utility.yul\":369:735   */\n      swap2\n      swap1\n      pop\n      jump\t// out\n        /* \"#utility.yul\":741:1160   */\n    tag_13:\n        /* \"#utility.yul\":907:911   */\n      0x00\n        /* \"#utility.yul\":945:947   */\n      0x20\n        /* \"#utility.yul\":934:943   */\n      dup3\n        /* \"#utility.yul\":930:948   */\n      add\n        /* \"#utility.yul\":922:948   */\n      swap1\n      pop\n        /* \"#utility.yul\":994:1003   */\n      dup2\n        /* \"#utility.yul\":988:992   */\n      dup2\n        /* \"#utility.yul\":984:1004   */\n      sub\n        /* \"#utility.yul\":980:981   */\n      0x00\n        /* \"#utility.yul\":969:978   */\n      dup4\n        /* \"#utility.yul\":965:982   */\n      add\n        /* \"#utility.yul\":958:1005   */\n      mstore\n        /* \"#utility.yul\":1022:1153   */\n      tag_92\n        /* \"#utility.yul\":1148:1152   */\n      dup2\n        /* \"#utility.yul\":1022:1153   */\n      tag_66\n      jump\t// in\n    tag_92:\n        /* \"#utility.yul\":1014:1153   */\n      swap1\n      pop\n        /* \"#utility.yul\":741:1160   */\n      swap2\n      swap1\n      pop\n      jump\t// out\n        /* \"#utility.yul\":1166:1243   */\n    tag_67:\n        /* \"#utility.yul\":1203:1210   */\n      0x00\n        /* \"#utility.yul\":1232:1237   */\n      dup2\n        /* \"#utility.yul\":1221:1237   */\n      swap1\n      pop\n        /* \"#utility.yul\":1166:1243   */\n      swap2\n      swap1\n      pop\n      jump\t// out\n        /* \"#utility.yul\":1249:1429   */\n    tag_68:\n        /* \"#utility.yul\":1297:1374   */\n      0x4e487b7100000000000000000000000000000000000000000000000000000000\n        /* \"#utility.yul\":1294:1295   */\n      0x00\n        /* \"#utility.yul\":1287:1375   */\n      mstore\n        /* \"#utility.yul\":1394:1398   */\n      0x11\n        /* \"#utility.yul\":1391:1392   */\n      0x04\n        /* \"#utility.yul\":1384:1399   */\n      mstore\n        /* \"#utility.yul\":1418:1422   */\n      0x24\n        /* \"#utility.yul\":1415:1416   */\n      0x00\n        /* \"#utility.yul\":1408:1423   */\n      revert\n        /* \"#utility.yul\":1435:1626   */\n    tag_15:\n        /* \"#utility.yul\":1475:1478   */\n      0x00\n        /* \"#utility.yul\":1494:1514   */\n      tag_96\n        /* \"#utility.yul\":1512:1513   */\n      dup3\n        /* \"#utility.yul\":1494:1514   */\n      tag_67\n      jump\t// in\n    tag_96:\n        /* \"#utility.yul\":1489:1514   */\n      swap2\n      pop\n        /* \"#utility.yul\":1528:1548   */\n      tag_97\n        /* \"#utility.yul\":1546:1547   */\n      dup4\n        /* \"#utility.yul\":1528:1548   */\n      tag_67\n      jump\t// in\n    tag_97:\n        /* \"#utility.yul\":1523:1548   */\n      swap3\n      pop\n        /* \"#utility.yul\":1571:1572   */\n      dup3\n        /* \"#utility.yul\":1568:1569   */\n      dup3\n        /* \"#utility.yul\":1564:1573   */\n      add\n        /* \"#utility.yul\":1557:1573   */\n      swap1\n      pop\n        /* \"#utility.yul\":1592:1595   */\n      dup1\n        /* \"#utility.yul\":1589:1590   */\n      dup3\n        /* \"#utility.yul\":1586:1596   */\n      gt\n        /* \"#utility.yul\":1583:1619   */\n      iszero\n      tag_98\n      jumpi\n        /* \"#utility.yul\":1599:1617   */\n      tag_99\n      tag_68\n      jump\t// in\n    tag_99:\n        /* \"#utility.yul\":1583:1619   */\n    tag_98:\n        /* \"#utility.yul\":1435:1626   */\n      swap3\n      swap2\n      pop\n      pop\n      jump\t// out\n        /* \"#utility.yul\":1632:1865   */\n    tag_17:\n        /* \"#utility.yul\":1671:1674   */\n      0x00\n        /* \"#utility.yul\":1694:1718   */\n      tag_101\n        /* \"#utility.yul\":1712:1717   */\n      dup3\n        /* \"#utility.yul\":1694:1718   */\n      tag_67\n      jump\t// in\n    tag_101:\n        /* \"#utility.yul\":1685:1718   */\n      swap2\n      pop\n        /* \"#utility.yul\":1740:1806   */\n      0xffffffffffffffffffffffffffffffffffffffffffffffffffffffffffffffff\n        /* \"#utility.yul\":1733:1738   */\n      dup3\n        /* \"#utility.yul\":1730:1807   */\n      sub\n        /* \"#utility.yul\":1727:1830   */\n      tag_102\n      jumpi\n        /* \"#utility.yul\":1810:1828   */\n      tag_103\n      tag_68\n      jump\t// in\n    tag_103:\n        /* \"#utility.yul\":1727:1830   */\n    tag_102:\n        /* \"#utility.yul\":1857:1858   */\n      0x01\n        /* \"#utility.yul\":1850:1855   */\n      dup3\n        /* \"#utility.yul\":1846:1859   */\n      add\n        /* \"#utility.yul\":1839:1859   */\n      swap1\n      pop\n        /* \"#utility.yul\":1632:1865   */\n      swap2\n      swap1\n      pop\n      jump\t// out\n        /* \"#utility.yul\":1871:1989   */\n    tag_69:\n        /* \"#utility.yul\":1958:1982   */\n      tag_105\n        /* \"#utility.yul\":1976:1981   */\n      dup2\n        /* \"#utility.yul\":1958:1982   */\n      tag_67\n      jump\t// in\n    tag_105:\n        /* \"#utility.yul\":1953:1956   */\n      dup3\n        /* \"#utility.yul\":1946:1983   */\n      mstore\n        /* \"#utility.yul\":1871:1989   */\n      pop\n      pop\n      jump\t// out\n        /* \"#utility.yul\":1995:2217   */\n    tag_22:\n        /* \"#utility.yul\":2088:2092   */\n      0x00\n        /* \"#utility.yul\":2126:2128   */\n      0x20\n        /* \"#utility.yul\":2115:2124   */\n      dup3\n        /* \"#utility.yul\":2111:2129   */\n      add\n        /* \"#utility.yul\":2103:2129   */\n      swap1\n      pop\n        /* \"#utility.yul\":2139:2210   */\n      tag_107\n        /* \"#utility.yul\":2207:2208   */\n      0x00\n        /* \"#utility.yul\":2196:2205   */\n      dup4\n        /* \"#utility.yul\":2192:2209   */\n      add\n        /* \"#utility.yul\":2183:2189   */\n      dup5\n        /* \"#utility.yul\":2139:2210   */\n      tag_69\n      jump\t// in\n    tag_107:\n        /* \"#utility.yul\":1995:2217   */\n      swap3\n      swap2\n      pop\n      pop\n      jump\t// out\n        /* \"#utility.yul\":2223:2349   */\n    tag_70:\n        /* \"#utility.yul\":2260:2267   */\n      0x00\n        /* \"#utility.yul\":2300:2342   */\n      0xffffffffffffffffffffffffffffffffffffffff\n        /* \"#utility.yul\":2293:2298   */\n      dup3\n        /* \"#utility.yul\":2289:2343   */\n      and\n        /* \"#utility.yul\":2278:2343   */\n      swap1\n      pop\n        /* \"#utility.yul\":2223:2349   */\n      swap2\n      swap1\n      pop\n      jump\t// out\n        /* \"#utility.yul\":2355:2459   */\n    tag_71:\n        /* \"#utility.yul\":2400:2407   */\n      0x00\n        /* \"#utility.yul\":2429:2453   */\n      tag_110\n        /* \"#utility.yul\":2447:2452   */\n      dup3\n        /* \"#utility.yul\":2429:2453   */\n      tag_70\n      jump\t// in\n    tag_110:\n        /* \"#utility.yul\":2418:2453   */\n      swap1\n      pop\n        /* \"#utility.yul\":2355:2459   */\n      swap2\n      swap1\n      pop\n      jump\t// out\n        /* \"#utility.yul\":2465:2607   */\n    tag_72:\n        /* \"#utility.yul\":2568:2600   */\n      tag_112\n        /* \"#utility.yul\":2594:2599   */\n      dup2\n        /* \"#utility.yul\":2568:2600   */\n      tag_71\n      jump\t// in\n    tag_112:\n        /* \"#utility.yul\":2563:2566   */\n      dup3\n        /* \"#utility.yul\":2556:2601   */\n      mstore\n        /* \"#utility.yul\":2465:2607   */\n      pop\n      pop\n      jump\t// out\n        /* \"#utility.yul\":2613:2867   */\n    tag_30:\n        /* \"#utility.yul\":2722:2726   */\n      0x00\n        /* \"#utility.yul\":2760:2762   */\n      0x20\n        /* \"#utility.yul\":2749:2758   */\n      dup3\n        /* \"#utility.yul\":2745:2763   */\n      add\n        /* \"#utility.yul\":2737:2763   */\n      swap1\n      pop\n        /* \"#utility.yul\":2773:2860   */\n      tag_114\n        /* \"#utility.yul\":2857:2858   */\n      0x00\n        /* \"#utility.yul\":2846:2855   */\n      dup4\n        /* \"#utility.yul\":2842:2859   */\n      add\n        /* \"#utility.yul\":2833:2839   */\n      dup5\n        /* \"#utility.yul\":2773:2860   */\n      tag_72\n      jump\t// in\n    tag_114:\n        /* \"#utility.yul\":2613:2867   */\n      swap3\n      swap2\n      pop\n      pop\n      jump\t// out\n        /* \"#utility.yul\":2954:3071   */\n    tag_74:\n        /* \"#utility.yul\":3063:3064   */\n      0x00\n        /* \"#utility.yul\":3060:3061   */\n      0x00\n        /* \"#utility.yul\":3053:3065   */\n      revert\n        /* \"#utility.yul\":3200:3296   */\n    tag_76:\n        /* \"#utility.yul\":3237:3244   */\n      0x00\n        /* \"#utility.yul\":3266:3290   */\n      tag_119\n        /* \"#utility.yul\":3284:3289   */\n      dup3\n        /* \"#utility.yul\":3266:3290   */\n      tag_70\n      jump\t// in\n    tag_119:\n        /* \"#utility.yul\":3255:3290   */\n      swap1\n      pop\n        /* \"#utility.yul\":3200:3296   */\n      swap2\n      swap1\n      pop\n      jump\t// out\n        /* \"#utility.yul\":3302:3424   */\n    tag_77:\n        /* \"#utility.yul\":3375:3399   */\n      tag_121\n        /* \"#utility.yul\":3393:3398   */\n      dup2\n        /* \"#utility.yul\":3375:3399   */\n      tag_76\n      jump\t// in\n    tag_121:\n        /* \"#utility.yul\":3368:3373   */\n      dup2\n        /* \"#utility.yul\":3365:3400   */\n      eq\n        /* \"#utility.yul\":3355:3418   */\n      tag_122\n      jumpi\n        /* \"#utility.yul\":3414:3415   */\n      0x00\n        /* \"#utility.yul\":3411:3412   */\n      0x00\n        /* \"#utility.yul\":3404:3416   */\n      revert\n        /* \"#utility.yul\":3355:3418   */\n    tag_122:\n        /* \"#utility.yul\":3302:3424   */\n      pop\n      jump\t// out\n        /* \"#utility.yul\":3430:3569   */\n    tag_78:\n        /* \"#utility.yul\":3476:3481   */\n      0x00\n        /* \"#utility.yul\":3514:3520   */\n      dup2\n        /* \"#utility.yul\":3501:3521   */\n      calldataload\n        /* \"#utility.yul\":3492:3521   */\n      swap1\n      pop\n        /* \"#utility.yul\":3530:3563   */\n      tag_124\n        /* \"#utility.yul\":3557:3562   */\n      dup2\n        /* \"#utility.yul\":3530:3563   */\n      tag_77\n      jump\t// in\n    tag_124:\n        /* \"#utility.yul\":3430:3569   */\n      swap3\n      swap2\n      pop\n      pop\n      jump\t// out\n        /* \"#utility.yul\":3575:3904   */\n    tag_36:\n        /* \"#utility.yul\":3634:3640   */\n      0x00\n        /* \"#utility.yul\":3683:3685   */\n      0x20\n        /* \"#utility.yul\":3671:3680   */\n      dup3\n        /* \"#utility.yul\":3662:3669   */\n      dup5\n        /* \"#utility.yul\":3658:3681   */\n      sub\n        /* \"#utility.yul\":3654:3686   */\n      slt\n        /* \"#utility.yul\":3651:3770   */\n      iszero\n      tag_126\n      jumpi\n        /* \"#utility.yul\":3689:3768   */\n      tag_127\n      tag_74\n      jump\t// in\n    tag_127:\n        /* \"#utility.yul\":3651:3770   */\n    tag_126:\n        /* \"#utility.yul\":3809:3810   */\n      0x00\n        /* \"#utility.yul\":3834:3887   */\n      tag_128\n        /* \"#utility.yul\":3879:3886   */\n      dup5\n        /* \"#utility.yul\":3870:3876   */\n      dup3\n        /* \"#utility.yul\":3859:3868   */\n      dup6\n        /* \"#utility.yul\":3855:3877   */\n      add\n        /* \"#utility.yul\":3834:3887   */\n      tag_78\n      jump\t// in\n    tag_128:\n        /* \"#utility.yul\":3824:3887   */\n      swap2\n      pop\n        /* \"#utility.yul\":3780:3897   */\n      pop\n        /* \"#utility.yul\":3575:3904   */\n      swap3\n      swap2\n      pop\n      pop\n      jump\t// out\n        /* \"#utility.yul\":3910:4242   */\n    tag_39:\n        /* \"#utility.yul\":4031:4035   */\n      0x00\n        /* \"#utility.yul\":4069:4071   */\n      0x40\n        /* \"#utility.yul\":4058:4067   */\n      dup3\n        /* \"#utility.yul\":4054:4072   */\n      add\n        /* \"#utility.yul\":4046:4072   */\n      swap1\n      pop\n        /* \"#utility.yul\":4082:4153   */\n      tag_130\n        /* \"#utility.yul\":4150:4151   */\n      0x00\n        /* \"#utility.yul\":4139:4148   */\n      dup4\n        /* \"#utility.yul\":4135:4152   */\n      add\n        /* \"#utility.yul\":4126:4132   */\n      dup6\n        /* \"#utility.yul\":4082:4153   */\n      tag_69\n      jump\t// in\n    tag_130:\n        /* \"#utility.yul\":4163:4235   */\n      tag_131\n        /* \"#utility.yul\":4231:4233   */\n      0x20\n        /* \"#utility.yul\":4220:4229   */\n      dup4\n        /* \"#utility.yul\":4216:4234   */\n      add\n        /* \"#utility.yul\":4207:4213   */\n      dup5\n        /* \"#utility.yul\":4163:4235   */\n      tag_69\n      jump\t// in\n    tag_131:\n        /* \"#utility.yul\":3910:4242   */\n      swap4\n      swap3\n      pop\n      pop\n      pop\n      jump\t// out\n        /* \"#utility.yul\":4248:4421   */\n    tag_79:\n        /* \"#utility.yul\":4388:4413   */\n      0x6f6e6c79206f776e65722063616e207769746864726177000000000000000000\n        /* \"#utility.yul\":4384:4385   */\n      0x00\n        /* \"#utility.yul\":4376:4382   */\n      dup3\n        /* \"#utility.yul\":4372:4386   */\n      add\n        /* \"#utility.yul\":4365:4414   */\n      mstore\n        /* \"#utility.yul\":4248:4421   */\n      pop\n      jump\t// out\n        /* \"#utility.yul\":4427:4793   */\n    tag_80:\n        /* \"#utility.yul\":4569:4572   */\n      0x00\n        /* \"#utility.yul\":4590:4657   */\n      tag_134\n        /* \"#utility.yul\":4654:4656   */\n      0x17\n        /* \"#utility.yul\":4649:4652   */\n      dup4\n        /* \"#utility.yul\":4590:4657   */\n      tag_64\n      jump\t// in\n    tag_134:\n        /* \"#utility.yul\":4583:4657   */\n      swap2\n      pop\n        /* \"#utility.yul\":4666:4759   */\n      tag_135\n        /* \"#utility.yul\":4755:4758   */\n      dup3\n        /* \"#utility.yul\":4666:4759   */\n      tag_79\n      jump\t// in\n    tag_135:\n        /* \"#utility.yul\":4784:4786   */\n      0x20\n        /* \"#utility.yul\":4779:4782   */\n      dup3\n        /* \"#utility.yul\":4775:4787   */\n      add\n        /* \"#utility.yul\":4768:4787   */\n      swap1\n      pop\n        /* \"#utility.yul\":4427:4793   */\n      swap2\n      swap1\n      pop\n      jump\t// out\n        /* \"#utility.yul\":4799:5218   */\n    tag_49:\n        /* \"#utility.yul\":4965:4969   */\n      0x00\n        /* \"#utility.yul\":5003:5005   */\n      0x20\n        /* \"#utility.yul\":4992:5001   */\n      dup3\n        /* \"#utility.yul\":4988:5006   */\n      add\n        /* \"#utility.yul\":4980:5006   */\n      swap1\n      pop\n        /* \"#utility.yul\":5052:5061   */\n      dup2\n        /* \"#utility.yul\":5046:5050   */\n      dup2\n        /* \"#utility.yul\":5042:5062   */\n      sub\n        /* \"#utility.yul\":5038:5039   */\n      0x00\n        /* \"#utility.yul\":5027:5036   */\n      dup4\n        /* \"#utility.yul\":5023:5040   */\n      add\n        /* \"#utility.yul\":5016:5063   */\n      mstore\n        /* \"#utility.yul\":5080:5211   */\n      tag_137\n        /* \"#utility.yul\":5206:5210   */\n      dup2\n        /* \"#utility.yul\":5080:5211   */\n      tag_80\n      jump\t// in\n    tag_137:\n        /* \"#utility.yul\":5072:5211   */\n      swap1\n      pop\n        /* \"#utility.yul\":4799:5218   */\n      swap2\n      swap1\n      pop\n      jump\t// out\n        /* \"#utility.yul\":5224:5444   */\n    tag_81:\n        /* \"#utility.yul\":5364:5398   */\n      0x62616c616e6365206d7573742062652067726561746572207468616e207a6572\n        /* \"#utility.yul\":5360:5361   */\n      0x00\n        /* \"#utility.yul\":5352:5358   */\n      dup3\n        /* \"#utility.yul\":5348:5362   */\n      add\n        /* \"#utility.yul\":5341:5399   */\n      mstore\n        /* \"#utility.yul\":5433:5436   */\n      0x6f00000000000000000000000000000000000000000000000000000000000000\n        /* \"#utility.yul\":5428:5430   */\n      0x20\n        /* \"#utility.yul\":5420:5426   */\n      dup3\n        /* \"#utility.yul\":5416:5431   */\n      add\n        /* \"#utility.yul\":5409:5437   */\n      mstore\n        /* \"#utility.yul\":5224:5444   */\n      pop\n      jump\t// out\n        /* \"#utility.yul\":5450:5816   */\n    tag_82:\n        /* \"#utility.yul\":5592:5595   */\n      0x00\n        /* \"#utility.yul\":5613:5680   */\n      tag_140\n        /* \"#utility.yul\":5677:5679   */\n      0x21\n        /* \"#utility.yul\":5672:5675   */\n      dup4\n        /* \"#utility.yul\":5613:5680   */\n      tag_64\n      jump\t// in\n    tag_140:\n        /* \"#utility.yul\":5606:5680   */\n      swap2\n      pop\n        /* \"#utility.yul\":5689:5782   */\n      tag_141\n        /* \"#utility.yul\":5778:5781   */\n      dup3\n        /* \"#utility.yul\":5689:5782   */\n      tag_81\n      jump\t// in\n    tag_141:\n        /* \"#utility.yul\":5807:5809   */\n      0x40\n        /* \"#utility.yul\":5802:5805   */\n      dup3\n        /* \"#utility.yul\":5798:5810   */\n      add\n        /* \"#utility.yul\":5791:5810   */\n      swap1\n      pop\n        /* \"#utility.yul\":5450:5816   */\n      swap2\n      swap1\n      pop\n      jump\t// out\n        /* \"#utility.yul\":5822:6241   */\n    tag_52:\n        /* \"#utility.yul\":5988:5992   */\n      0x00\n        /* \"#utility.yul\":6026:6028   */\n      0x20\n        /* \"#utility.yul\":6015:6024   */\n      dup3\n        /* \"#utility.yul\":6011:6029   */\n      add\n        /* \"#utility.yul\":6003:6029   */\n      swap1\n      pop\n        /* \"#utility.yul\":6075:6084   */\n      dup2\n        /* \"#utility.yul\":6069:6073   */\n      dup2\n        /* \"#utility.yul\":6065:6085   */\n      sub\n        /* \"#utility.yul\":6061:6062   */\n      0x00\n        /* \"#utility.yul\":6050:6059   */\n      dup4\n        /* \"#utility.yul\":6046:6063   */\n      add\n        /* \"#utility.yul\":6039:6086   */\n      mstore\n        /* \"#utility.yul\":6103:6234   */\n      tag_143\n        /* \"#utility.yul\":6229:6233   */\n      dup2\n        /* \"#utility.yul\":6103:6234   */\n      tag_82\n      jump\t// in\n    tag_143:\n        /* \"#utility.yul\":6095:6234   */\n      swap1\n      pop\n        /* \"#utility.yul\":5822:6241   */\n      swap2\n      swap1\n      pop\n      jump\t// out\n        /* \"#utility.yul\":6247:6412   */\n    tag_83:\n        /* \"#utility.yul\":6387:6404   */\n      0x696e76616c696420616464726573730000000000000000000000000000000000\n        /* \"#utility.yul\":6383:6384   */\n      0x00\n        /* \"#utility.yul\":6375:6381   */\n      dup3\n        /* \"#utility.yul\":6371:6385   */\n      add\n        /* \"#utility.yul\":6364:6405   */\n      mstore\n        /* \"#utility.yul\":6247:6412   */\n      pop\n      jump\t// out\n        /* \"#utility.yul\":6418:6784   */\n    tag_84:\n        /* \"#utility.yul\":6560:6563   */\n      0x00\n        /* \"#utility.yul\":6581:6648   */\n      tag_146\n        /* \"#utility.yul\":6645:6647   */\n      0x0f\n        /* \"#utility.yul\":6640:6643   */\n      dup4\n        /* \"#utility.yul\":6581:6648   */\n      tag_64\n      jump\t// in\n    tag_146:\n        /* \"#utility.yul\":6574:6648   */\n      swap2\n      pop\n        /* \"#utility.yul\":6657:6750   */\n      tag_147\n        /* \"#utility.yul\":6746:6749   */\n      dup3\n        /* \"#utility.yul\":6657:6750   */\n      tag_83\n      jump\t// in\n    tag_147:\n        /* \"#utility.yul\":6775:6777   */\n      0x20\n        /* \"#utility.yul\":6770:6773   */\n      dup3\n        /* \"#utility.yul\":6766:6778   */\n      add\n        /* \"#utility.yul\":6759:6778   */\n      swap1\n      pop\n        /* \"#utility.yul\":6418:6784   */\n      swap2\n      swap1\n      pop\n      jump\t// out\n        /* \"#utility.yul\":6790:7209   */\n    tag_63:\n        /* \"#utility.yul\":6956:6960   */\n      0x00\n        /* \"#utility.yul\":6994:6996   */\n      0x20\n        /* \"#utility.yul\":6983:6992   */\n      dup3\n        /* \"#utility.yul\":6979:6997   */\n      add\n        /* \"#utility.yul\":6971:6997   */\n      swap1\n      pop\n        /* \"#utility.yul\":7043:7052   */\n      dup2\n        /* \"#utility.yul\":7037:7041   */\n      dup2\n        /* \"#utility.yul\":7033:7053   */\n      sub\n        /* \"#utility.yul\":7029:7030   */\n      0x00\n        /* \"#utility.yul\":7018:7027   */\n      dup4\n        /* \"#utility.yul\":7014:7031   */\n      add\n        /* \"#utility.yul\":7007:7054   */\n      mstore\n        /* \"#utility.yul\":7071:7202   */\n      tag_149\n        /* \"#utility.yul\":7197:7201   */\n      dup2\n        /* \"#utility.yul\":7071:7202   */\n      tag_84\n      jump\t// in\n    tag_149:\n        /* \"#utility.yul\":7063:7202   */\n      swap1\n      pop\n        /* \"#utility.yul\":6790:7209   */\n      swap2\n      swap1\n      pop\n      jump\t// out\n\n    auxdata: 0xa264697066735822122015dc0e17faecf8c8f8a48fb3c0d50c6f3ebe0837eb1f0319e9abadf2cdb3c69464736f6c634300081e0033\n}\n",
				"bytecode": {
					"linkReferences": {},
					"object": "6080604052348015600e575f5ffd5b50335f5f6101000a81548173ffffffffffffffffffffffffffffffffffffffff021916908373ffffffffffffffffffffffffffffffffffffffff16021790555061094f8061005b5f395ff3fe608060405260043610610058575f3560e01c806312065fe01461014e5780633ccfd60b146101785780638da5cb5b1461018e578063d0e30db0146101b8578063e1254fba146101c2578063fc7e286d146101ff5761014a565b3661014a575f341161009f576040517f08c379a0000000000000000000000000000000000000000000000000000000008152600401610096906105dc565b60405180910390fd5b3460015f3373ffffffffffffffffffffffffffffffffffffffff1673ffffffffffffffffffffffffffffffffffffffff1681526020019081526020015f205f015f8282546100ed9190610630565b9250508190555060015f3373ffffffffffffffffffffffffffffffffffffffff1673ffffffffffffffffffffffffffffffffffffffff1681526020019081526020015f206001015f81548092919061014490610663565b91905055005b5f5ffd5b348015610159575f5ffd5b5061016261023c565b60405161016f91906106b9565b60405180910390f35b348015610183575f5ffd5b5061018c610243565b005b348015610199575f5ffd5b506101a2610379565b6040516101af9190610711565b60405180910390f35b6101c061039d565b005b3480156101cd575f5ffd5b506101e860048036038101906101e39190610769565b61048b565b6040516101f6929190610794565b60405180910390f35b34801561020a575f5ffd5b5061022560048036038101906102209190610769565b610562565b604051610233929190610794565b60405180910390f35b5f47905090565b5f5f9054906101000a900473ffffffffffffffffffffffffffffffffffffffff1673ffffffffffffffffffffffffffffffffffffffff163373ffffffffffffffffffffffffffffffffffffffff16146102d1576040517f08c379a00000000000000000000000000000000000000000000000000000000081526004016102c890610805565b60405180910390fd5b5f4711610313576040517f08c379a000000000000000000000000000000000000000000000000000000000815260040161030a90610893565b60405180910390fd5b5f5f9054906101000a900473ffffffffffffffffffffffffffffffffffffffff1673ffffffffffffffffffffffffffffffffffffffff166108fc4790811502906040515f60405180830381858888f19350505050158015610376573d5f5f3e3d5ffd5b50565b5f5f9054906101000a900473ffffffffffffffffffffffffffffffffffffffff1681565b5f34116103df576040517f08c379a00000000000000000000000000000000000000000000000000000000081526004016103d6906105dc565b60405180910390fd5b3460015f3373ffffffffffffffffffffffffffffffffffffffff1673ffffffffffffffffffffffffffffffffffffffff1681526020019081526020015f205f015f82825461042d9190610630565b9250508190555060015f3373ffffffffffffffffffffffffffffffffffffffff1673ffffffffffffffffffffffffffffffffffffffff1681526020019081526020015f206001015f81548092919061048490610663565b9190505550565b5f5f5f60015f8573ffffffffffffffffffffffffffffffffffffffff1673ffffffffffffffffffffffffffffffffffffffff1681526020019081526020015f20600101541161050f576040517f08c379a0000000000000000000000000000000000000000000000000000000008152600401610506906108fb565b60405180910390fd5b5f60015f8573ffffffffffffffffffffffffffffffffffffffff1673ffffffffffffffffffffffffffffffffffffffff1681526020019081526020015f2090508060010154815f01549250925050915091565b6001602052805f5260405f205f91509050805f0154908060010154905082565b5f82825260208201905092915050565b7f76616c7565206d7573742062652067726561746572207468616e207a65726f005f82015250565b5f6105c6601f83610582565b91506105d182610592565b602082019050919050565b5f6020820190508181035f8301526105f3816105ba565b9050919050565b5f819050919050565b7f4e487b71000000000000000000000000000000000000000000000000000000005f52601160045260245ffd5b5f61063a826105fa565b9150610645836105fa565b925082820190508082111561065d5761065c610603565b5b92915050565b5f61066d826105fa565b91507fffffffffffffffffffffffffffffffffffffffffffffffffffffffffffffffff820361069f5761069e610603565b5b600182019050919050565b6106b3816105fa565b82525050565b5f6020820190506106cc5f8301846106aa565b92915050565b5f73ffffffffffffffffffffffffffffffffffffffff82169050919050565b5f6106fb826106d2565b9050919050565b61070b816106f1565b82525050565b5f6020820190506107245f830184610702565b92915050565b5f5ffd5b5f610738826106d2565b9050919050565b6107488161072e565b8114610752575f5ffd5b50565b5f813590506107638161073f565b92915050565b5f6020828403121561077e5761077d61072a565b5b5f61078b84828501610755565b91505092915050565b5f6040820190506107a75f8301856106aa565b6107b460208301846106aa565b9392505050565b7f6f6e6c79206f776e65722063616e2077697468647261770000000000000000005f82015250565b5f6107ef601783610582565b91506107fa826107bb565b602082019050919050565b5f6020820190508181035f83015261081c816107e3565b9050919050565b7f62616c616e6365206d7573742062652067726561746572207468616e207a65725f8201527f6f00000000000000000000000000000000000000000000000000000000000000602082015250565b5f61087d602183610582565b915061088882610823565b604082019050919050565b5f6020820190508181035f8301526108aa81610871565b9050919050565b7f696e76616c6964206164647265737300000000000000000000000000000000005f82015250565b5f6108e5600f83610582565b91506108f0826108b1565b602082019050919050565b5f6020820190508181035f830152610912816108d9565b905091905056fea264697066735822122015dc0e17faecf8c8f8a48fb3c0d50c6f3ebe0837eb1f0319e9abadf2cdb3c69464736f6c634300081e0033",
					"opcodes": "PUSH1 0x80 PUSH1 0x40 MSTORE CALLVALUE DUP1 ISZERO PUSH1 0xE JUMPI PUSH0 PUSH0 REVERT JUMPDEST POP CALLER PUSH0 PUSH0 PUSH2 0x100 EXP DUP2 SLOAD DUP2 PUSH20 0xFFFFFFFFFFFFFFFFFFFFFFFFFFFFFFFFFFFFFFFF MUL NOT AND SWAP1 DUP4 PUSH20 0xFFFFFFFFFFFFFFFFFFFFFFFFFFFFFFFFFFFFFFFF AND MUL OR SWAP1 SSTORE POP PUSH2 0x94F DUP1 PUSH2 0x5B PUSH0 CODECOPY PUSH0 RETURN INVALID PUSH1 0x80 PUSH1 0x40 MSTORE PUSH1 0x4 CALLDATASIZE LT PUSH2 0x58 JUMPI PUSH0 CALLDATALOAD PUSH1 0xE0 SHR DUP1 PUSH4 0x12065FE0 EQ PUSH2 0x14E JUMPI DUP1 PUSH4 0x3CCFD60B EQ PUSH2 0x178 JUMPI DUP1 PUSH4 0x8DA5CB5B EQ PUSH2 0x18E JUMPI DUP1 PUSH4 0xD0E30DB0 EQ PUSH2 0x1B8 JUMPI DUP1 PUSH4 0xE1254FBA EQ PUSH2 0x1C2 JUMPI DUP1 PUSH4 0xFC7E286D EQ PUSH2 0x1FF JUMPI PUSH2 0x14A JUMP JUMPDEST CALLDATASIZE PUSH2 0x14A JUMPI PUSH0 CALLVALUE GT PUSH2 0x9F JUMPI PUSH1 0x40 MLOAD PUSH32 0x8C379A000000000000000000000000000000000000000000000000000000000 DUP2 MSTORE PUSH1 0x4 ADD PUSH2 0x96 SWAP1 PUSH2 0x5DC JUMP JUMPDEST PUSH1 0x40 MLOAD DUP1 SWAP2 SUB SWAP1 REVERT JUMPDEST CALLVALUE PUSH1 0x1 PUSH0 CALLER PUSH20 0xFFFFFFFFFFFFFFFFFFFFFFFFFFFFFFFFFFFFFFFF AND PUSH20 0xFFFFFFFFFFFFFFFFFFFFFFFFFFFFFFFFFFFFFFFF AND DUP2 MSTORE PUSH1 0x20 ADD SWAP1 DUP2 MSTORE PUSH1 0x20 ADD PUSH0 KECCAK256 PUSH0 ADD PUSH0 DUP3 DUP3 SLOAD PUSH2 0xED SWAP2 SWAP1 PUSH2 0x630 JUMP JUMPDEST SWAP3 POP POP DUP2 SWAP1 SSTORE POP PUSH1 0x1 PUSH0 CALLER PUSH20 0xFFFFFFFFFFFFFFFFFFFFFFFFFFFFFFFFFFFFFFFF AND PUSH20 0xFFFFFFFFFFFFFFFFFFFFFFFFFFFFFFFFFFFFFFFF AND DUP2 MSTORE PUSH1 0x20 ADD SWAP1 DUP2 MSTORE PUSH1 0x20 ADD PUSH0 KECCAK256 PUSH1 0x1 ADD PUSH0 DUP2 SLOAD DUP1 SWAP3 SWAP2 SWAP1 PUSH2 0x144 SWAP1 PUSH2 0x663 JUMP JUMPDEST SWAP2 SWAP1 POP SSTORE STOP JUMPDEST PUSH0 PUSH0 REVERT JUMPDEST CALLVALUE DUP1 ISZERO PUSH2 0x159 JUMPI PUSH0 PUSH0 REVERT JUMPDEST POP PUSH2 0x162 PUSH2 0x23C JUMP JUMPDEST PUSH1 0x40 MLOAD PUSH2 0x16F SWAP2 SWAP1 PUSH2 0x6B9 JUMP JUMPDEST PUSH1 0x40 MLOAD DUP1 SWAP2 SUB SWAP1 RETURN JUMPDEST CALLVALUE DUP1 ISZERO PUSH2 0x183 JUMPI PUSH0 PUSH0 REVERT JUMPDEST POP PUSH2 0x18C PUSH2 0x243 JUMP JUMPDEST STOP JUMPDEST CALLVALUE DUP1 ISZERO PUSH2 0x199 JUMPI PUSH0 PUSH0 REVERT JUMPDEST POP PUSH2 0x1A2 PUSH2 0x379 JUMP JUMPDEST PUSH1 0x40 MLOAD PUSH2 0x1AF SWAP2 SWAP1 PUSH2 0x711 JUMP JUMPDEST PUSH1 0x40 MLOAD DUP1 SWAP2 SUB SWAP1 RETURN JUMPDEST PUSH2 0x1C0 PUSH2 0x39D JUMP JUMPDEST STOP JUMPDEST CALLVALUE DUP1 ISZERO PUSH2 0x1CD JUMPI PUSH0 PUSH0 REVERT JUMPDEST POP PUSH2 0x1E8 PUSH1 0x4 DUP1 CALLDATASIZE SUB DUP2 ADD SWAP1 PUSH2 0x1E3 SWAP2 SWAP1 PUSH2 0x769 JUMP JUMPDEST PUSH2 0x48B JUMP JUMPDEST PUSH1 0x40 MLOAD PUSH2 0x1F6 SWAP3 SWAP2 SWAP1 PUSH2 0x794 JUMP JUMPDEST PUSH1 0x40 MLOAD DUP1 SWAP2 SUB SWAP1 RETURN JUMPDEST CALLVALUE DUP1 ISZERO PUSH2 0x20A JUMPI PUSH0 PUSH0 REVERT JUMPDEST POP PUSH2 0x225 PUSH1 0x4 DUP1 CALLDATASIZE SUB DUP2 ADD SWAP1 PUSH2 0x220 SWAP2 SWAP1 PUSH2 0x769 JUMP JUMPDEST PUSH2 0x562 JUMP JUMPDEST PUSH1 0x40 MLOAD PUSH2 0x233 SWAP3 SWAP2 SWAP1 PUSH2 0x794 JUMP JUMPDEST PUSH1 0x40 MLOAD DUP1 SWAP2 SUB SWAP1 RETURN JUMPDEST PUSH0 SELFBALANCE SWAP1 POP SWAP1 JUMP JUMPDEST PUSH0 PUSH0 SWAP1 SLOAD SWAP1 PUSH2 0x100 EXP SWAP1 DIV PUSH20 0xFFFFFFFFFFFFFFFFFFFFFFFFFFFFFFFFFFFFFFFF AND PUSH20 0xFFFFFFFFFFFFFFFFFFFFFFFFFFFFFFFFFFFFFFFF AND CALLER PUSH20 0xFFFFFFFFFFFFFFFFFFFFFFFFFFFFFFFFFFFFFFFF AND EQ PUSH2 0x2D1 JUMPI PUSH1 0x40 MLOAD PUSH32 0x8C379A000000000000000000000000000000000000000000000000000000000 DUP2 MSTORE PUSH1 0x4 ADD PUSH2 0x2C8 SWAP1 PUSH2 0x805 JUMP JUMPDEST PUSH1 0x40 MLOAD DUP1 SWAP2 SUB SWAP1 REVERT JUMPDEST PUSH0 SELFBALANCE GT PUSH2 0x313 JUMPI PUSH1 0x40 MLOAD PUSH32 0x8C379A000000000000000000000000000000000000000000000000000000000 DUP2 MSTORE PUSH1 0x4 ADD PUSH2 0x30A SWAP1 PUSH2 0x893 JUMP JUMPDEST PUSH1 0x40 MLOAD DUP1 SWAP2 SUB SWAP1 REVERT JUMPDEST PUSH0 PUSH0 SWAP1 SLOAD SWAP1 PUSH2 0x100 EXP SWAP1 DIV PUSH20 0xFFFFFFFFFFFFFFFFFFFFFFFFFFFFFFFFFFFFFFFF AND PUSH20 0xFFFFFFFFFFFFFFFFFFFFFFFFFFFFFFFFFFFFFFFF AND PUSH2 0x8FC SELFBALANCE SWAP1 DUP2 ISZERO MUL SWAP1 PUSH1 0x40 MLOAD PUSH0 PUSH1 0x40 MLOAD DUP1 DUP4 SUB DUP2 DUP6 DUP9 DUP9 CALL SWAP4 POP POP POP POP ISZERO DUP1 ISZERO PUSH2 0x376 JUMPI RETURNDATASIZE PUSH0 PUSH0 RETURNDATACOPY RETURNDATASIZE PUSH0 REVERT JUMPDEST POP JUMP JUMPDEST PUSH0 PUSH0 SWAP1 SLOAD SWAP1 PUSH2 0x100 EXP SWAP1 DIV PUSH20 0xFFFFFFFFFFFFFFFFFFFFFFFFFFFFFFFFFFFFFFFF AND DUP2 JUMP JUMPDEST PUSH0 CALLVALUE GT PUSH2 0x3DF JUMPI PUSH1 0x40 MLOAD PUSH32 0x8C379A000000000000000000000000000000000000000000000000000000000 DUP2 MSTORE PUSH1 0x4 ADD PUSH2 0x3D6 SWAP1 PUSH2 0x5DC JUMP JUMPDEST PUSH1 0x40 MLOAD DUP1 SWAP2 SUB SWAP1 REVERT JUMPDEST CALLVALUE PUSH1 0x1 PUSH0 CALLER PUSH20 0xFFFFFFFFFFFFFFFFFFFFFFFFFFFFFFFFFFFFFFFF AND PUSH20 0xFFFFFFFFFFFFFFFFFFFFFFFFFFFFFFFFFFFFFFFF AND DUP2 MSTORE PUSH1 0x20 ADD SWAP1 DUP2 MSTORE PUSH1 0x20 ADD PUSH0 KECCAK256 PUSH0 ADD PUSH0 DUP3 DUP3 SLOAD PUSH2 0x42D SWAP2 SWAP1 PUSH2 0x630 JUMP JUMPDEST SWAP3 POP POP DUP2 SWAP1 SSTORE POP PUSH1 0x1 PUSH0 CALLER PUSH20 0xFFFFFFFFFFFFFFFFFFFFFFFFFFFFFFFFFFFFFFFF AND PUSH20 0xFFFFFFFFFFFFFFFFFFFFFFFFFFFFFFFFFFFFFFFF AND DUP2 MSTORE PUSH1 0x20 ADD SWAP1 DUP2 MSTORE PUSH1 0x20 ADD PUSH0 KECCAK256 PUSH1 0x1 ADD PUSH0 DUP2 SLOAD DUP1 SWAP3 SWAP2 SWAP1 PUSH2 0x484 SWAP1 PUSH2 0x663 JUMP JUMPDEST SWAP2 SWAP1 POP SSTORE POP JUMP JUMPDEST PUSH0 PUSH0 PUSH0 PUSH1 0x1 PUSH0 DUP6 PUSH20 0xFFFFFFFFFFFFFFFFFFFFFFFFFFFFFFFFFFFFFFFF AND PUSH20 0xFFFFFFFFFFFFFFFFFFFFFFFFFFFFFFFFFFFFFFFF AND DUP2 MSTORE PUSH1 0x20 ADD SWAP1 DUP2 MSTORE PUSH1 0x20 ADD PUSH0 KECCAK256 PUSH1 0x1 ADD SLOAD GT PUSH2 0x50F JUMPI PUSH1 0x40 MLOAD PUSH32 0x8C379A000000000000000000000000000000000000000000000000000000000 DUP2 MSTORE PUSH1 0x4 ADD PUSH2 0x506 SWAP1 PUSH2 0x8FB JUMP JUMPDEST PUSH1 0x40 MLOAD DUP1 SWAP2 SUB SWAP1 REVERT JUMPDEST PUSH0 PUSH1 0x1 PUSH0 DUP6 PUSH20 0xFFFFFFFFFFFFFFFFFFFFFFFFFFFFFFFFFFFFFFFF AND PUSH20 0xFFFFFFFFFFFFFFFFFFFFFFFFFFFFFFFFFFFFFFFF AND DUP2 MSTORE PUSH1 0x20 ADD SWAP1 DUP2 MSTORE PUSH1 0x20 ADD PUSH0 KECCAK256 SWAP1 POP DUP1 PUSH1 0x1 ADD SLOAD DUP2 PUSH0 ADD SLOAD SWAP3 POP SWAP3 POP POP SWAP2 POP SWAP2 JUMP JUMPDEST PUSH1 0x1 PUSH1 0x20 MSTORE DUP1 PUSH0 MSTORE PUSH1 0x40 PUSH0 KECCAK256 PUSH0 SWAP2 POP SWAP1 POP DUP1 PUSH0 ADD SLOAD SWAP1 DUP1 PUSH1 0x1 ADD SLOAD SWAP1 POP DUP3 JUMP JUMPDEST PUSH0 DUP3 DUP3 MSTORE PUSH1 0x20 DUP3 ADD SWAP1 POP SWAP3 SWAP2 POP POP JUMP JUMPDEST PUSH32 0x76616C7565206D7573742062652067726561746572207468616E207A65726F00 PUSH0 DUP3 ADD MSTORE POP JUMP JUMPDEST PUSH0 PUSH2 0x5C6 PUSH1 0x1F DUP4 PUSH2 0x582 JUMP JUMPDEST SWAP2 POP PUSH2 0x5D1 DUP3 PUSH2 0x592 JUMP JUMPDEST PUSH1 0x20 DUP3 ADD SWAP1 POP SWAP2 SWAP1 POP JUMP JUMPDEST PUSH0 PUSH1 0x20 DUP3 ADD SWAP1 POP DUP2 DUP2 SUB PUSH0 DUP4 ADD MSTORE PUSH2 0x5F3 DUP2 PUSH2 0x5BA JUMP JUMPDEST SWAP1 POP SWAP2 SWAP1 POP JUMP JUMPDEST PUSH0 DUP2 SWAP1 POP SWAP2 SWAP1 POP JUMP JUMPDEST PUSH32 0x4E487B7100000000000000000000000000000000000000000000000000000000 PUSH0 MSTORE PUSH1 0x11 PUSH1 0x4 MSTORE PUSH1 0x24 PUSH0 REVERT JUMPDEST PUSH0 PUSH2 0x63A DUP3 PUSH2 0x5FA JUMP JUMPDEST SWAP2 POP PUSH2 0x645 DUP4 PUSH2 0x5FA JUMP JUMPDEST SWAP3 POP DUP3 DUP3 ADD SWAP1 POP DUP1 DUP3 GT ISZERO PUSH2 0x65D JUMPI PUSH2 0x65C PUSH2 0x603 JUMP JUMPDEST JUMPDEST SWAP3 SWAP2 POP POP JUMP JUMPDEST PUSH0 PUSH2 0x66D DUP3 PUSH2 0x5FA JUMP JUMPDEST SWAP2 POP PUSH32 0xFFFFFFFFFFFFFFFFFFFFFFFFFFFFFFFFFFFFFFFFFFFFFFFFFFFFFFFFFFFFFFFF DUP3 SUB PUSH2 0x69F JUMPI PUSH2 0x69E PUSH2 0x603 JUMP JUMPDEST JUMPDEST PUSH1 0x1 DUP3 ADD SWAP1 POP SWAP2 SWAP1 POP JUMP JUMPDEST PUSH2 0x6B3 DUP2 PUSH2 0x5FA JUMP JUMPDEST DUP3 MSTORE POP POP JUMP JUMPDEST PUSH0 PUSH1 0x20 DUP3 ADD SWAP1 POP PUSH2 0x6CC PUSH0 DUP4 ADD DUP5 PUSH2 0x6AA JUMP JUMPDEST SWAP3 SWAP2 POP POP JUMP JUMPDEST PUSH0 PUSH20 0xFFFFFFFFFFFFFFFFFFFFFFFFFFFFFFFFFFFFFFFF DUP3 AND SWAP1 POP SWAP2 SWAP1 POP JUMP JUMPDEST PUSH0 PUSH2 0x6FB DUP3 PUSH2 0x6D2 JUMP JUMPDEST SWAP1 POP SWAP2 SWAP1 POP JUMP JUMPDEST PUSH2 0x70B DUP2 PUSH2 0x6F1 JUMP JUMPDEST DUP3 MSTORE POP POP JUMP JUMPDEST PUSH0 PUSH1 0x20 DUP3 ADD SWAP1 POP PUSH2 0x724 PUSH0 DUP4 ADD DUP5 PUSH2 0x702 JUMP JUMPDEST SWAP3 SWAP2 POP POP JUMP JUMPDEST PUSH0 PUSH0 REVERT JUMPDEST PUSH0 PUSH2 0x738 DUP3 PUSH2 0x6D2 JUMP JUMPDEST SWAP1 POP SWAP2 SWAP1 POP JUMP JUMPDEST PUSH2 0x748 DUP2 PUSH2 0x72E JUMP JUMPDEST DUP2 EQ PUSH2 0x752 JUMPI PUSH0 PUSH0 REVERT JUMPDEST POP JUMP JUMPDEST PUSH0 DUP2 CALLDATALOAD SWAP1 POP PUSH2 0x763 DUP2 PUSH2 0x73F JUMP JUMPDEST SWAP3 SWAP2 POP POP JUMP JUMPDEST PUSH0 PUSH1 0x20 DUP3 DUP5 SUB SLT ISZERO PUSH2 0x77E JUMPI PUSH2 0x77D PUSH2 0x72A JUMP JUMPDEST JUMPDEST PUSH0 PUSH2 0x78B DUP5 DUP3 DUP6 ADD PUSH2 0x755 JUMP JUMPDEST SWAP2 POP POP SWAP3 SWAP2 POP POP JUMP JUMPDEST PUSH0 PUSH1 0x40 DUP3 ADD SWAP1 POP PUSH2 0x7A7 PUSH0 DUP4 ADD DUP6 PUSH2 0x6AA JUMP JUMPDEST PUSH2 0x7B4 PUSH1 0x20 DUP4 ADD DUP5 PUSH2 0x6AA JUMP JUMPDEST SWAP4 SWAP3 POP POP POP JUMP JUMPDEST PUSH32 0x6F6E6C79206F776E65722063616E207769746864726177000000000000000000 PUSH0 DUP3 ADD MSTORE POP JUMP JUMPDEST PUSH0 PUSH2 0x7EF PUSH1 0x17 DUP4 PUSH2 0x582 JUMP JUMPDEST SWAP2 POP PUSH2 0x7FA DUP3 PUSH2 0x7BB JUMP JUMPDEST PUSH1 0x20 DUP3 ADD SWAP1 POP SWAP2 SWAP1 POP JUMP JUMPDEST PUSH0 PUSH1 0x20 DUP3 ADD SWAP1 POP DUP2 DUP2 SUB PUSH0 DUP4 ADD MSTORE PUSH2 0x81C DUP2 PUSH2 0x7E3 JUMP JUMPDEST SWAP1 POP SWAP2 SWAP1 POP JUMP JUMPDEST PUSH32 0x62616C616E6365206D7573742062652067726561746572207468616E207A6572 PUSH0 DUP3 ADD MSTORE PUSH32 0x6F00000000000000000000000000000000000000000000000000000000000000 PUSH1 0x20 DUP3 ADD MSTORE POP JUMP JUMPDEST PUSH0 PUSH2 0x87D PUSH1 0x21 DUP4 PUSH2 0x582 JUMP JUMPDEST SWAP2 POP PUSH2 0x888 DUP3 PUSH2 0x823 JUMP JUMPDEST PUSH1 0x40 DUP3 ADD SWAP1 POP SWAP2 SWAP1 POP JUMP JUMPDEST PUSH0 PUSH1 0x20 DUP3 ADD SWAP1 POP DUP2 DUP2 SUB PUSH0 DUP4 ADD MSTORE PUSH2 0x8AA DUP2 PUSH2 0x871 JUMP JUMPDEST SWAP1 POP SWAP2 SWAP1 POP JUMP JUMPDEST PUSH32 0x696E76616C696420616464726573730000000000000000000000000000000000 PUSH0 DUP3 ADD MSTORE POP JUMP JUMPDEST PUSH0 PUSH2 0x8E5 PUSH1 0xF DUP4 PUSH2 0x582 JUMP JUMPDEST SWAP2 POP PUSH2 0x8F0 DUP3 PUSH2 0x8B1 JUMP JUMPDEST PUSH1 0x20 DUP3 ADD SWAP1 POP SWAP2 SWAP1 POP JUMP JUMPDEST PUSH0 PUSH1 0x20 DUP3 ADD SWAP1 POP DUP2 DUP2 SUB PUSH0 DUP4 ADD MSTORE PUSH2 0x912 DUP2 PUSH2 0x8D9 JUMP JUMPDEST SWAP1 POP SWAP2 SWAP1 POP JUMP INVALID LOG2 PUSH5 0x6970667358 0x22 SLT KECCAK256 ISZERO 0xDC 0xE OR STATICCALL EOFCREATE 0xF8 0xC8 EXTCALL LOG4 DUP16 0xB3 0xC0 0xD5 0xC PUSH16 0x3EBE0837EB1F0319E9ABADF2CDB3C694 PUSH5 0x736F6C6343 STOP ADDMOD 0x1E STOP CALLER "
				},
				"gasEstimates": {
					"creation": {
						"codeDepositCost": "476600",
						"executionCost": "24773",
						"totalCost": "501373"
					},
					"external": {
						"deposit()": "infinite",
						"deposits(address)": "infinite",
						"getBalance()": "312",
						"getDeposit(address)": "infinite",
						"owner()": "2529",
						"withdraw()": "infinite"
					}
				},
				"methodIdentifiers": {
					"deposit()": "d0e30db0",
					"deposits(address)": "fc7e286d",
					"getBalance()": "12065fe0",
					"getDeposit(address)": "e1254fba",
					"owner()": "8da5cb5b",
					"withdraw()": "3ccfd60b"
				}
			},
			"storageLayout": {
				"storage": [
					{
						"astId": 3,
						"contract": "Bank.sol:PiggyBank",
						"label": "owner",
						"offset": 0,
						"slot": "0",
						"type": "t_address_payable"
					},
					{
						"astId": 13,
						"contract": "Bank.sol:PiggyBank",
						"label": "deposits",
						"offset": 0,
						"slot": "1",
						"type": "t_mapping(t_address,t_struct(Depositor)8_storage)"
					}
				],
				"types": {
					"t_address": {
						"encoding": "inplace",
						"label": "address",
						"numberOfBytes": "20"
					},
					"t_address_payable": {
						"encoding": "inplace",
						"label": "address payable",
						"numberOfBytes": "20"
					},
					"t_mapping(t_address,t_struct(Depositor)8_storage)": {
						"encoding": "mapping",
						"key": "t_address",
						"label": "mapping(address => struct PiggyBank.Depositor)",
						"numberOfBytes": "32",
						"value": "t_struct(Depositor)8_storage"
					},
					"t_struct(Depositor)8_storage": {
						"encoding": "inplace",
						"label": "struct PiggyBank.Depositor",
						"members": [
							{
								"astId": 5,
								"contract": "Bank.sol:PiggyBank",
								"label": "totalDeposited",
								"offset": 0,
								"slot": "0",
								"type": "t_uint256"
							},
							{
								"astId": 7,
								"contract": "Bank.sol:PiggyBank",
								"label": "depositCount",
								"offset": 0,
								"slot": "1",
								"type": "t_uint256"
							}
						],
						"numberOfBytes": "64"
					},
					"t_uint256": {
						"encoding": "inplace",
						"label": "uint256",
						"numberOfBytes": "32"
					}
				}
			},
			"userdoc": {
				"kind": "user",
				"methods": {},
				"version": 1
			}
		}
	}
}