{
	"clienteNovo.sol": {
		"Resgatador": {
			"abi": [
				{
					"inputs": [],
					"name": "resgatar",
					"outputs": [],
					"stateMutability": "nonpayable",
					"type": "function"
				},
				{
					"stateMutability": "payable",
					"type": "receive"
				}
			],
			"devdoc": {
				"kind": "dev",
				"methods": {},
				"version": 1
			},
			"evm": {
				"assembly": "    /* \"clienteNovo.sol\":61:711  contract Resgatador {... */\n  mstore(0x40, 0x80)\n    /* \"clienteNovo.sol\":112:154  0xadcb90bf289fb2268F24b47274DaF7A4dC394836 */\n  0xadcb90bf289fb2268f24b47274daf7a4dc394836\n    /* \"clienteNovo.sol\":88:154  address clienteAntigo = 0xadcb90bf289fb2268F24b47274DaF7A4dC394836 */\n  0x00\n  exp(0x0100, 0x00)\n  dup2\n  sload\n  dup2\n  0xffffffffffffffffffffffffffffffffffffffff\n  mul\n  not\n  and\n  swap1\n  dup4\n  0xffffffffffffffffffffffffffffffffffffffff\n  and\n  mul\n  or\n  swap1\n  sstore\n  pop\n    /* \"clienteNovo.sol\":185:227  0x7bbc881D7EB481e963B36C467b52eb352C1e3068 */\n  0x7bbc881d7eb481e963b36c467b52eb352c1e3068\n    /* \"clienteNovo.sol\":161:227  address minhaCarteira = 0x7bbc881D7EB481e963B36C467b52eb352C1e3068 */\n  0x01\n  exp(0x0100, 0x00)\n  dup2\n  sload\n  dup2\n  0xffffffffffffffffffffffffffffffffffffffff\n  mul\n  not\n  and\n  swap1\n  dup4\n  0xffffffffffffffffffffffffffffffffffffffff\n  and\n  mul\n  or\n  swap1\n  sstore\n  pop\n    /* \"clienteNovo.sol\":61:711  contract Resgatador {... */\n  callvalue\n  dup1\n  iszero\n  tag_1\n  jumpi\n  revert(0x00, 0x00)\ntag_1:\n  pop\n  dataSize(sub_0)\n  dup1\n  dataOffset(sub_0)\n  0x00\n  codecopy\n  0x00\n  return\nstop\n\nsub_0: assembly {\n        /* \"clienteNovo.sol\":61:711  contract Resgatador {... */\n      mstore(0x40, 0x80)\n      jumpi(tag_1, lt(calldatasize, 0x04))\n      shr(0xe0, calldataload(0x00))\n      dup1\n      0xd5880ed2\n      eq\n      tag_3\n      jumpi\n      jump(tag_2)\n    tag_1:\n      jumpi(tag_2, calldatasize)\n      stop\n    tag_2:\n      revert(0x00, 0x00)\n        /* \"clienteNovo.sol\":236:671  function resgatar() external {... */\n    tag_3:\n      callvalue\n      dup1\n      iszero\n      tag_6\n      jumpi\n      revert(0x00, 0x00)\n    tag_6:\n      pop\n      tag_7\n      tag_8\n      jump\t// in\n    tag_7:\n      stop\n    tag_8:\n        /* \"clienteNovo.sol\":337:349  bool success */\n      0x00\n        /* \"clienteNovo.sol\":355:368  clienteAntigo */\n      0x00\n      0x00\n      swap1\n      sload\n      swap1\n      0x0100\n      exp\n      swap1\n      div\n      0xffffffffffffffffffffffffffffffffffffffff\n      and\n        /* \"clienteNovo.sol\":355:373  clienteAntigo.call */\n      0xffffffffffffffffffffffffffffffffffffffff\n      and\n        /* \"clienteNovo.sol\":440:459  1000200000000000000 */\n      0x0de16c99c8588000\n        /* \"clienteNovo.sol\":388:460  abi.encodeWithSignature(\"requisitarSaque(uint256)\", 1000200000000000000) */\n      add(0x24, mload(0x40))\n      tag_10\n      swap2\n      swap1\n      tag_11\n      jump\t// in\n    tag_10:\n      mload(0x40)\n      0x20\n      dup2\n      dup4\n      sub\n      sub\n      dup2\n      mstore\n      swap1\n      0x40\n      mstore\n      and(not(0xffffffffffffffffffffffffffffffffffffffffffffffffffffffff), 0x466fa6f700000000000000000000000000000000000000000000000000000000)\n      0x20\n      dup3\n      add\n      dup1\n      mload\n      0xffffffffffffffffffffffffffffffffffffffffffffffffffffffff\n      dup4\n      dup2\n      dup4\n      and\n      or\n      dup4\n      mstore\n      pop\n      pop\n      pop\n      pop\n        /* \"clienteNovo.sol\":355:471  clienteAntigo.call(... */\n      mload(0x40)\n      tag_12\n      swap2\n      swap1\n      tag_13\n      jump\t// in\n    tag_12:\n      0x00\n      mload(0x40)\n      dup1\n      dup4\n      sub\n      dup2\n      0x00\n      dup7\n      gas\n      call\n      swap2\n      pop\n      pop\n      returndatasize\n      dup1\n      0x00\n      dup2\n      eq\n      tag_16\n      jumpi\n      mload(0x40)\n      swap2\n      pop\n      and(add(returndatasize, 0x3f), not(0x1f))\n      dup3\n      add\n      0x40\n      mstore\n      returndatasize\n      dup3\n      mstore\n      returndatasize\n      0x00\n      0x20\n      dup5\n      add\n      returndatacopy\n      jump(tag_15)\n    tag_16:\n      0x60\n      swap2\n      pop\n    tag_15:\n      pop\n        /* \"clienteNovo.sol\":336:471  (bool success, ) = clienteAntigo.call(... */\n      pop\n      swap1\n      pop\n        /* \"clienteNovo.sol\":580:581  0 */\n      0x00\n        /* \"clienteNovo.sol\":556:577  address(this).balance */\n      selfbalance\n        /* \"clienteNovo.sol\":556:581  address(this).balance > 0 */\n      gt\n        /* \"clienteNovo.sol\":552:664  if (address(this).balance > 0) {... */\n      iszero\n      tag_17\n      jumpi\n        /* \"clienteNovo.sol\":606:619  minhaCarteira */\n      0x01\n      0x00\n      swap1\n      sload\n      swap1\n      0x0100\n      exp\n      swap1\n      div\n      0xffffffffffffffffffffffffffffffffffffffff\n      and\n        /* \"clienteNovo.sol\":598:629  payable(minhaCarteira).transfer */\n      0xffffffffffffffffffffffffffffffffffffffff\n      and\n        /* \"clienteNovo.sol\":598:652  payable(minhaCarteira).transfer(address(this).balance) */\n      0x08fc\n        /* \"clienteNovo.sol\":630:651  address(this).balance */\n      selfbalance\n        /* \"clienteNovo.sol\":598:652  payable(minhaCarteira).transfer(address(this).balance) */\n      swap1\n      dup2\n      iszero\n      mul\n      swap1\n      mload(0x40)\n      0x00\n      mload(0x40)\n      dup1\n      dup4\n      sub\n      dup2\n      dup6\n      dup9\n      dup9\n      call\n      swap4\n      pop\n      pop\n      pop\n      pop\n      iszero\n      dup1\n      iszero\n      tag_19\n      jumpi\n      returndatacopy(0x00, 0x00, returndatasize)\n      revert(0x00, returndatasize)\n    tag_19:\n      pop\n        /* \"clienteNovo.sol\":552:664  if (address(this).balance > 0) {... */\n    tag_17:\n        /* \"clienteNovo.sol\":265:671  {... */\n      pop\n        /* \"clienteNovo.sol\":236:671  function resgatar() external {... */\n      jump\t// out\n        /* \"#utility.yul\":7:110   */\n    tag_20:\n        /* \"#utility.yul\":70:77   */\n      0x00\n        /* \"#utility.yul\":99:104   */\n      dup2\n        /* \"#utility.yul\":88:104   */\n      swap1\n      pop\n        /* \"#utility.yul\":7:110   */\n      swap2\n      swap1\n      pop\n      jump\t// out\n        /* \"#utility.yul\":116:217   */\n    tag_21:\n        /* \"#utility.yul\":152:159   */\n      0x00\n        /* \"#utility.yul\":192:210   */\n      0xffffffffffffffff\n        /* \"#utility.yul\":185:190   */\n      dup3\n        /* \"#utility.yul\":181:211   */\n      and\n        /* \"#utility.yul\":170:211   */\n      swap1\n      pop\n        /* \"#utility.yul\":116:217   */\n      swap2\n      swap1\n      pop\n      jump\t// out\n        /* \"#utility.yul\":223:283   */\n    tag_22:\n        /* \"#utility.yul\":251:254   */\n      0x00\n        /* \"#utility.yul\":272:277   */\n      dup2\n        /* \"#utility.yul\":265:277   */\n      swap1\n      pop\n        /* \"#utility.yul\":223:283   */\n      swap2\n      swap1\n      pop\n      jump\t// out\n        /* \"#utility.yul\":289:481   */\n    tag_23:\n        /* \"#utility.yul\":364:373   */\n      0x00\n        /* \"#utility.yul\":397:475   */\n      tag_34\n        /* \"#utility.yul\":414:474   */\n      tag_35\n        /* \"#utility.yul\":423:473   */\n      tag_36\n        /* \"#utility.yul\":467:472   */\n      dup5\n        /* \"#utility.yul\":423:473   */\n      tag_20\n      jump\t// in\n    tag_36:\n        /* \"#utility.yul\":414:474   */\n      tag_22\n      jump\t// in\n    tag_35:\n        /* \"#utility.yul\":397:475   */\n      tag_21\n      jump\t// in\n    tag_34:\n        /* \"#utility.yul\":384:475   */\n      swap1\n      pop\n        /* \"#utility.yul\":289:481   */\n      swap2\n      swap1\n      pop\n      jump\t// out\n        /* \"#utility.yul\":487:668   */\n    tag_24:\n        /* \"#utility.yul\":599:661   */\n      tag_38\n        /* \"#utility.yul\":655:660   */\n      dup2\n        /* \"#utility.yul\":599:661   */\n      tag_23\n      jump\t// in\n    tag_38:\n        /* \"#utility.yul\":594:597   */\n      dup3\n        /* \"#utility.yul\":587:662   */\n      mstore\n        /* \"#utility.yul\":487:668   */\n      pop\n      pop\n      jump\t// out\n        /* \"#utility.yul\":674:946   */\n    tag_11:\n        /* \"#utility.yul\":792:796   */\n      0x00\n        /* \"#utility.yul\":830:832   */\n      0x20\n        /* \"#utility.yul\":819:828   */\n      dup3\n        /* \"#utility.yul\":815:833   */\n      add\n        /* \"#utility.yul\":807:833   */\n      swap1\n      pop\n        /* \"#utility.yul\":843:939   */\n      tag_40\n        /* \"#utility.yul\":936:937   */\n      0x00\n        /* \"#utility.yul\":925:934   */\n      dup4\n        /* \"#utility.yul\":921:938   */\n      add\n        /* \"#utility.yul\":912:918   */\n      dup5\n        /* \"#utility.yul\":843:939   */\n      tag_24\n      jump\t// in\n    tag_40:\n        /* \"#utility.yul\":674:946   */\n      swap3\n      swap2\n      pop\n      pop\n      jump\t// out\n        /* \"#utility.yul\":952:1050   */\n    tag_25:\n        /* \"#utility.yul\":1003:1009   */\n      0x00\n        /* \"#utility.yul\":1037:1042   */\n      dup2\n        /* \"#utility.yul\":1031:1043   */\n      mload\n        /* \"#utility.yul\":1021:1043   */\n      swap1\n      pop\n        /* \"#utility.yul\":952:1050   */\n      swap2\n      swap1\n      pop\n      jump\t// out\n        /* \"#utility.yul\":1056:1203   */\n    tag_26:\n        /* \"#utility.yul\":1157:1168   */\n      0x00\n        /* \"#utility.yul\":1194:1197   */\n      dup2\n        /* \"#utility.yul\":1179:1197   */\n      swap1\n      pop\n        /* \"#utility.yul\":1056:1203   */\n      swap3\n      swap2\n      pop\n      pop\n      jump\t// out\n        /* \"#utility.yul\":1209:1348   */\n    tag_27:\n        /* \"#utility.yul\":1298:1304   */\n      dup3\n        /* \"#utility.yul\":1293:1296   */\n      dup2\n        /* \"#utility.yul\":1288:1291   */\n      dup4\n        /* \"#utility.yul\":1282:1305   */\n      mcopy\n        /* \"#utility.yul\":1339:1340   */\n      0x00\n        /* \"#utility.yul\":1330:1336   */\n      dup4\n        /* \"#utility.yul\":1325:1328   */\n      dup4\n        /* \"#utility.yul\":1321:1337   */\n      add\n        /* \"#utility.yul\":1314:1341   */\n      mstore\n        /* \"#utility.yul\":1209:1348   */\n      pop\n      pop\n      pop\n      jump\t// out\n        /* \"#utility.yul\":1354:1740   */\n    tag_28:\n        /* \"#utility.yul\":1458:1461   */\n      0x00\n        /* \"#utility.yul\":1486:1524   */\n      tag_45\n        /* \"#utility.yul\":1518:1523   */\n      dup3\n        /* \"#utility.yul\":1486:1524   */\n      tag_25\n      jump\t// in\n    tag_45:\n        /* \"#utility.yul\":1540:1628   */\n      tag_46\n        /* \"#utility.yul\":1621:1627   */\n      dup2\n        /* \"#utility.yul\":1616:1619   */\n      dup6\n        /* \"#utility.yul\":1540:1628   */\n      tag_26\n      jump\t// in\n    tag_46:\n        /* \"#utility.yul\":1533:1628   */\n      swap4\n      pop\n        /* \"#utility.yul\":1637:1702   */\n      tag_47\n        /* \"#utility.yul\":1695:1701   */\n      dup2\n        /* \"#utility.yul\":1690:1693   */\n      dup6\n        /* \"#utility.yul\":1683:1687   */\n      0x20\n        /* \"#utility.yul\":1676:1681   */\n      dup7\n        /* \"#utility.yul\":1672:1688   */\n      add\n        /* \"#utility.yul\":1637:1702   */\n      tag_27\n      jump\t// in\n    tag_47:\n        /* \"#utility.yul\":1727:1733   */\n      dup1\n        /* \"#utility.yul\":1722:1725   */\n      dup5\n        /* \"#utility.yul\":1718:1734   */\n      add\n        /* \"#utility.yul\":1711:1734   */\n      swap2\n      pop\n        /* \"#utility.yul\":1462:1740   */\n      pop\n        /* \"#utility.yul\":1354:1740   */\n      swap3\n      swap2\n      pop\n      pop\n      jump\t// out\n        /* \"#utility.yul\":1746:2017   */\n    tag_13:\n        /* \"#utility.yul\":1876:1879   */\n      0x00\n        /* \"#utility.yul\":1898:1991   */\n      tag_49\n        /* \"#utility.yul\":1987:1990   */\n      dup3\n        /* \"#utility.yul\":1978:1984   */\n      dup5\n        /* \"#utility.yul\":1898:1991   */\n      tag_28\n      jump\t// in\n    tag_49:\n        /* \"#utility.yul\":1891:1991   */\n      swap2\n      pop\n        /* \"#utility.yul\":2008:2011   */\n      dup2\n        /* \"#utility.yul\":2001:2011   */\n      swap1\n      pop\n        /* \"#utility.yul\":1746:2017   */\n      swap3\n      swap2\n      pop\n      pop\n      jump\t// out\n\n    auxdata: 0xa26469706673582212204c86e01d7c61137d177212924be779d75a99611fafdbbf8f288809b257db4d5f64736f6c634300081e0033\n}\n",
				"bytecode": {
					"linkReferences": {},
					"object": "608060405273adcb90bf289fb2268f24b47274daf7a4dc3948365f5f6101000a81548173ffffffffffffffffffffffffffffffffffffffff021916908373ffffffffffffffffffffffffffffffffffffffff160217905550737bbc881d7eb481e963b36c467b52eb352c1e306860015f6101000a81548173ffffffffffffffffffffffffffffffffffffffff021916908373ffffffffffffffffffffffffffffffffffffffff16021790555034801560b5575f5ffd5b506102dc806100c35f395ff3fe608060405260043610610021575f3560e01c8063d5880ed21461002c57610028565b3661002857005b5f5ffd5b348015610037575f5ffd5b50610040610042565b005b5f5f5f9054906101000a900473ffffffffffffffffffffffffffffffffffffffff1673ffffffffffffffffffffffffffffffffffffffff16670de16c99c85880006040516024016100939190610225565b6040516020818303038152906040527f466fa6f7000000000000000000000000000000000000000000000000000000007bffffffffffffffffffffffffffffffffffffffffffffffffffffffff19166020820180517bffffffffffffffffffffffffffffffffffffffffffffffffffffffff838183161783525050505060405161011d9190610290565b5f604051808303815f865af19150503d805f8114610156576040519150601f19603f3d011682016040523d82523d5f602084013e61015b565b606091505b505090505f4711156101cd5760015f9054906101000a900473ffffffffffffffffffffffffffffffffffffffff1673ffffffffffffffffffffffffffffffffffffffff166108fc4790811502906040515f60405180830381858888f193505050501580156101cb573d5f5f3e3d5ffd5b505b50565b5f819050919050565b5f67ffffffffffffffff82169050919050565b5f819050919050565b5f61020f61020a610205846101d0565b6101ec565b6101d9565b9050919050565b61021f816101f5565b82525050565b5f6020820190506102385f830184610216565b92915050565b5f81519050919050565b5f81905092915050565b8281835e5f83830152505050565b5f61026a8261023e565b6102748185610248565b9350610284818560208601610252565b80840191505092915050565b5f61029b8284610260565b91508190509291505056fea26469706673582212204c86e01d7c61137d177212924be779d75a99611fafdbbf8f288809b257db4d5f64736f6c634300081e0033",
					"opcodes": "PUSH1 0x80 PUSH1 0x40 MSTORE PUSH20 0xADCB90BF289FB2268F24B47274DAF7A4DC394836 PUSH0 PUSH0 PUSH2 0x100 EXP DUP2 SLOAD DUP2 PUSH20 0xFFFFFFFFFFFFFFFFFFFFFFFFFFFFFFFFFFFFFFFF MUL NOT AND SWAP1 DUP4 PUSH20 0xFFFFFFFFFFFFFFFFFFFFFFFFFFFFFFFFFFFFFFFF AND MUL OR SWAP1 SSTORE POP PUSH20 0x7BBC881D7EB481E963B36C467B52EB352C1E3068 PUSH1 0x1 PUSH0 PUSH2 0x100 EXP DUP2 SLOAD DUP2 PUSH20 0xFFFFFFFFFFFFFFFFFFFFFFFFFFFFFFFFFFFFFFFF MUL NOT AND SWAP1 DUP4 PUSH20 0xFFFFFFFFFFFFFFFFFFFFFFFFFFFFFFFFFFFFFFFF AND MUL OR SWAP1 SSTORE POP CALLVALUE DUP1 ISZERO PUSH1 0xB5 JUMPI PUSH0 PUSH0 REVERT JUMPDEST POP PUSH2 0x2DC DUP1 PUSH2 0xC3 PUSH0 CODECOPY PUSH0 RETURN INVALID PUSH1 0x80 PUSH1 0x40 MSTORE PUSH1 0x4 CALLDATASIZE LT PUSH2 0x21 JUMPI PUSH0 CALLDATALOAD PUSH1 0xE0 SHR DUP1 PUSH4 0xD5880ED2 EQ PUSH2 0x2C JUMPI PUSH2 0x28 JUMP JUMPDEST CALLDATASIZE PUSH2 0x28 JUMPI STOP JUMPDEST PUSH0 PUSH0 REVERT JUMPDEST CALLVALUE DUP1 ISZERO PUSH2 0x37 JUMPI PUSH0 PUSH0 REVERT JUMPDEST POP PUSH2 0x40 PUSH2 0x42 JUMP JUMPDEST STOP JUMPDEST PUSH0 PUSH0 PUSH0 SWAP1 SLOAD SWAP1 PUSH2 0x100 EXP SWAP1 DIV PUSH20 0xFFFFFFFFFFFFFFFFFFFFFFFFFFFFFFFFFFFFFFFF AND PUSH20 0xFFFFFFFFFFFFFFFFFFFFFFFFFFFFFFFFFFFFFFFF AND PUSH8 0xDE16C99C8588000 PUSH1 0x40 MLOAD PUSH1 0x24 ADD PUSH2 0x93 SWAP2 SWAP1 PUSH2 0x225 JUMP JUMPDEST PUSH1 0x40 MLOAD PUSH1 0x20 DUP2 DUP4 SUB SUB DUP2 MSTORE SWAP1 PUSH1 0x40 MSTORE PUSH32 0x466FA6F700000000000000000000000000000000000000000000000000000000 PUSH28 0xFFFFFFFFFFFFFFFFFFFFFFFFFFFFFFFFFFFFFFFFFFFFFFFFFFFFFFFF NOT AND PUSH1 0x20 DUP3 ADD DUP1 MLOAD PUSH28 0xFFFFFFFFFFFFFFFFFFFFFFFFFFFFFFFFFFFFFFFFFFFFFFFFFFFFFFFF DUP4 DUP2 DUP4 AND OR DUP4 MSTORE POP POP POP POP PUSH1 0x40 MLOAD PUSH2 0x11D SWAP2 SWAP1 PUSH2 0x290 JUMP JUMPDEST PUSH0 PUSH1 0x40 MLOAD DUP1 DUP4 SUB DUP2 PUSH0 DUP7 GAS CALL SWAP2 POP POP RETURNDATASIZE DUP1 PUSH0 DUP2 EQ PUSH2 0x156 JUMPI PUSH1 0x40 MLOAD SWAP2 POP PUSH1 0x1F NOT PUSH1 0x3F RETURNDATASIZE ADD AND DUP3 ADD PUSH1 0x40 MSTORE RETURNDATASIZE DUP3 MSTORE RETURNDATASIZE PUSH0 PUSH1 0x20 DUP5 ADD RETURNDATACOPY PUSH2 0x15B JUMP JUMPDEST PUSH1 0x60 SWAP2 POP JUMPDEST POP POP SWAP1 POP PUSH0 SELFBALANCE GT ISZERO PUSH2 0x1CD JUMPI PUSH1 0x1 PUSH0 SWAP1 SLOAD SWAP1 PUSH2 0x100 EXP SWAP1 DIV PUSH20 0xFFFFFFFFFFFFFFFFFFFFFFFFFFFFFFFFFFFFFFFF AND PUSH20 0xFFFFFFFFFFFFFFFFFFFFFFFFFFFFFFFFFFFFFFFF AND PUSH2 0x8FC SELFBALANCE SWAP1 DUP2 ISZERO MUL SWAP1 PUSH1 0x40 MLOAD PUSH0 PUSH1 0x40 MLOAD DUP1 DUP4 SUB DUP2 DUP6 DUP9 DUP9 CALL SWAP4 POP POP POP POP ISZERO DUP1 ISZERO PUSH2 0x1CB JUMPI RETURNDATASIZE PUSH0 PUSH0 RETURNDATACOPY RETURNDATASIZE PUSH0 REVERT JUMPDEST POP JUMPDEST POP JUMP JUMPDEST PUSH0 DUP2 SWAP1 POP SWAP2 SWAP1 POP JUMP JUMPDEST PUSH0 PUSH8 0xFFFFFFFFFFFFFFFF DUP3 AND SWAP1 POP SWAP2 SWAP1 POP JUMP JUMPDEST PUSH0 DUP2 SWAP1 POP SWAP2 SWAP1 POP JUMP JUMPDEST PUSH0 PUSH2 0x20F PUSH2 0x20A PUSH2 0x205 DUP5 PUSH2 0x1D0 JUMP JUMPDEST PUSH2 0x1EC JUMP JUMPDEST PUSH2 0x1D9 JUMP JUMPDEST SWAP1 POP SWAP2 SWAP1 POP JUMP JUMPDEST PUSH2 0x21F DUP2 PUSH2 0x1F5 JUMP JUMPDEST DUP3 MSTORE POP POP JUMP JUMPDEST PUSH0 PUSH1 0x20 DUP3 ADD SWAP1 POP PUSH2 0x238 PUSH0 DUP4 ADD DUP5 PUSH2 0x216 JUMP JUMPDEST SWAP3 SWAP2 POP POP JUMP JUMPDEST PUSH0 DUP2 MLOAD SWAP1 POP SWAP2 SWAP1 POP JUMP JUMPDEST PUSH0 DUP2 SWAP1 POP SWAP3 SWAP2 POP POP JUMP JUMPDEST DUP3 DUP2 DUP4 MCOPY PUSH0 DUP4 DUP4 ADD MSTORE POP POP POP JUMP JUMPDEST PUSH0 PUSH2 0x26A DUP3 PUSH2 0x23E JUMP JUMPDEST PUSH2 0x274 DUP2 DUP6 PUSH2 0x248 JUMP JUMPDEST SWAP4 POP PUSH2 0x284 DUP2 DUP6 PUSH1 0x20 DUP7 ADD PUSH2 0x252 JUMP JUMPDEST DUP1 DUP5 ADD SWAP2 POP POP SWAP3 SWAP2 POP POP JUMP JUMPDEST PUSH0 PUSH2 0x29B DUP3 DUP5 PUSH2 0x260 JUMP JUMPDEST SWAP2 POP DUP2 SWAP1 POP SWAP3 SWAP2 POP POP JUMP INVALID LOG2 PUSH5 0x6970667358 0x22 SLT KECCAK256 0x4C DUP7 RJUMP 0x1D7C PUSH2 0x137D OR PUSH19 0x12924BE779D75A99611FAFDBBF8F288809B257 0xDB 0x4D PUSH0 PUSH5 0x736F6C6343 STOP ADDMOD 0x1E STOP CALLER "
				},
				"gasEstimates": {
					"creation": {
						"codeDepositCost": "146400",
						"executionCost": "48719",
						"totalCost": "195119"
					},
					"external": {
						"resgatar()": "infinite"
					}
				},
				"methodIdentifiers": {
					"resgatar()": "d5880ed2"
				}
			},
			"storageLayout": {
				"storage": [
					{
						"astId": 4,
						"contract": "clienteNovo.sol:Resgatador",
						"label": "clienteAntigo",
						"offset": 0,
						"slot": "0",
						"type": "t_address"
					},
					{
						"astId": 7,
						"contract": "clienteNovo.sol:Resgatador",
						"label": "minhaCarteira",
						"offset": 0,
						"slot": "1",
						"type": "t_address"
					}
				],
				"types": {
					"t_address": {
						"encoding": "inplace",
						"label": "address",
						"numberOfBytes": "20"
					}
				}
			},
			"userdoc": {
				"kind": "user",
				"methods": {},
				"version": 1
			}
		}
	}
}